S0130000446179335F5461736B30332E737265636B
S113000045C0000058C0000056C0000054C00000A5
S113001052C0000050C000004EC000004CC00000A0
S11300204AC0000048C0000046C0000044C00000B0
S113003042C0000040C000003EC000003CC00000C0
S11300403AC0000038C0000036C0000034C00000D0
S113005032C0000030C000002EC000002CC00000E0
S11300602AC0000028C0000026C0000024C00000F0
S113007022C0000020C000001EC000001CC0000000
S11300801AC0000018C0000016C0000011241FBED2
S1130090CFEFD0E1DEBFCDBF11E0A0E0B1E0E6E1FB
S11300A0F8E000E00BBF02C007900D92AC30B1073E
S11300B0D9F77AD2AEC3A4CFCF93DF9300D000D0C8
S11300C0CDB7DEB7807F982F9C60998388608A8340
S11300D042E050E0BE016F5F7F4F80910001DED0AF
S11300E00F900F900F900F90DF91CF910895CF93C1
S11300F0DF9300D000D0CDB7DEB7982F907F292FA3
S11301002C60298398609A8320E1829FC001112486
S1130110982F9C609B8388608C8344E050E0BE01F0
S11301206F5F7F4F80910001B9D00F900F900F90B7
S11301300F90DF91CF9108958BD02FEF80E792E05D
S1130140215080409040E1F700C0000080E3B4DF1C
S11301508FE19EE40197F1F700C0000080E3ACDF7B
S11301608FE891E00197F1F700C0000080E3A4DF7D
S11301708FE891E00197F1F700C0000080E29CDF76
S11301808FE891E00197F1F700C0000088E2AFDF4B
S113019087EC90E00197F1F700C0000088E0A7DF4A
S11301A087EC90E00197F1F700C0000081E09FDF49
S11301B08FED9EE20197F1F700C0000086E097DF23
S11301C087EC90E00197F1F700C000008CE08FDF2E
S11301D087EC90E00197F1F700C000000895CF93F9
S11301E0DF9300D000D0CDB7DEB7982F907F292FB2
S11301F02D60298399609A8320E1829FC001112494
S1130200982F9D609B8389608C8344E050E0BE01FD
S11302106F5F7F4F8091000141D00F900F900F903E
S11302200F90DF91CF91089590E4899F600D112480
S1130230862F80685CCF0895CF93DF93EC0102C0D2
S11302402196CDDF88818111FBCFDF91CF91089575
S113025082B3836082BB88E480937000089594EA3B
S113026090937400909174009923E4F78093730041
S113027084E880937400809174008823E4F70895DF
S11302808093730084E880937400809174008823C1
S1130290E4F7089584E9809374000895EF92FF923F
S11302A00F931F93CF93DF937B018A01D8DFC0E0C4
S11302B0D0E00CC0F701EC0FFD1F8081E1DF8FE976
S11302C09FE00197F1F700C000002196C017D10705
S11302D088F3E0DFDF91CF911F910F91FF90EF90B2
S11302E00895E0E0F0E019C0DB01AE0FBF1F2C91D0
S11302F030E0322F22278227932720E00BC0992356
S113030034F4880F991F35E08327905802C0880F72
S1130310991F2F5F283098F33196E417F50720F3DF
S113032008951092900082E289B982E08BB988E145
S11303308AB986E08093950008955D9BFECF8CB9C1
S11303400895109298008FEC8093990082E0809336
S11303509B0088E180939A0086E080939D00089535
S113036090919B0095FFFCCF80939C000895809111
S11303709B00881F8827881F089580919C000895FA
S1130380EF92FF920F931F93CF93DF93CDB7DEB716
S113039064970FB6F894DEBF0FBECDBFE22FF0E036
S11303A035969FEF99839A839DEF9B831C828D835F
S11303B0EE83FF8383E0888769877A8780E01AE089
S11303C00DC0FA01E80FF11D9081E1E0F0E0EC0FBF
S11303D0FD1FE10FF11D90838F5F1F5F821788F36C
S11303E0E12EF12CA701BE016F5F7F4F80E090E00A
S11303F078DF21E0210FE1E0F0E0EC0FFD1FEE0DCE
S1130400FF1D808302E0010FE1E0F0E0EC0FFD1F2F
S1130410E20FF11D908383B1846083B985E38A95EB
S1130420F1F700008BB180648BB910E009C0E1E002
S1130430F0E0EC0FFD1FE10FF11D80817EDF1F5FF7
S11304401017A8F35E9BFECF83B18B7F83B96496AC
S11304500FB6F894DEBF0FBECDBFDF91CF911F91D1
S11304600F91FF90EF900895CF93DF931F92CDB734
S1130470DEB7498321E0AE014F5F5F4F81DF0F900C
S1130480DF91CF910895CF93DF9300D000D0CDB703
S1130490DEB729833A834B835C8324E0AE014F5F4C
S11304A05F4F6EDF0F900F900F900F90DF91CF9101
S11304B00895E1E6F0E080818E7F8083E2E6F0E05B
S11304C080818E7F808380E487B987E886B9089528
S11304D086B1806486B93699FECF84B195B108950A
S11304E00F931F93CF93DF9300D000D000D0CDB7EC
S11304F0DEB7AC01062F892B21F480E3898311E058
S11305002DC010E02BC09A01ADECBCEC20D1969527
S1130510879596958795969587959C01220F331F0D
S1130520880F991F880F991F880F991F820F931F97
S11305309A01281B390BC901805DE1E0F0E0EC0F62
S1130540FD1FE10FF11D80839A0101D1AC01569585
S1130550479556954795569547951F5F4115510503
S113056091F609C0E1E0F0E0EC0FFD1FE10FF11D91
S113057080E280831F5F1017A8F309C01150E1E0E7
S1130580F0E0EC0FFD1FE10FF11D808128DE111159
S1130590F5CF26960FB6F894DEBF0FBECDBFDF9120
S11305A0CF911F910F91089582B1846082B983B174
S11305B08B7F83B982B1826082B982B18E7F82B926
S11305C081B3886081BB81B38B7F81BBAADEB9DE36
S11305D070DFB2DD2FEF80E792E021508040904041
S11305E0E1F700C0000060E080E01EDE81E091E001
S11305F023DE60E081E018DE86E091E01DDE2FEF6F
S113060089E698E1215080409040E1F700C0000065
S113061040E060E470E081E027DF2FEF89EF90E0B5
S1130620215080409040E1F700C0000043E06BE0BF
S113063070E081E019DF2FEF89EF90E021508040D6
S11306409040E1F700C0000041E060E470E081E028
S11306500BDF2FEF89EF90E0215080409040E1F7CD
S113066000C0000020E030E0A90160E770E081E014
S11306700ADF11E0C12CD12C412C512CEE24EA9438
S1130680FE2C75DE882349F178DEC82F80ED8C0FAF
S11306908A3008F5AC2FB0E0D0972CE231E066D078
S11306A029E33EE843EE58E367D000E28ED0622EA1
S11306B0732E842E952ED401C301B695A7959795D4
S11306C087956C019C01AD014427552760E770E0D4
S11306D081E0D9DE11E08C2F43DEFADEEC01E8166E
S11306E0F90620F48E199F09049760F4CE15DF05EE
S11306F028F4C7018C1B9D0B049720F42FEFE216FE
S1130700F20659F49E0140E050E064E770E081E0B5
S1130710BADE4C2E5D2E7E0111E0112371F064E0EF
S113072080E082DD64E0C601DBDE64E081E07CDD44
S113073064E0842D952DD4DE10E08FEF99EF20E056
S1130740815090402040E1F700C000009ACFA29F62
S1130750B001B39FC001A39F700D811D1124911D91
S1130760B29F700D811D1124911D0895F0DFB7FF14
S11307700895821B930B0895E894DF93CF93FC01B3
S1130780DB01E5DF7F936F93E9019A01AC01BF932D
S1130790AF933F932F93DF01DADF26F46C1B7D0BBD
S11307A0820B930B9E01EB01FC012BD0AF91BF9107
S11307B02F913F9126D0BE01CF01F9012F913F9196
S11307C0CF91DF91089597FB10F8169400080F93CA
S11307D0083098F00850232F342F452F562F672FB9
S11307E0782F892F902DF4CF059497958795779539
S11307F0679557954795379527950A95AAF70F91C9
S11308000895A5DF460F571FC81FD91F08F4319656
S10908100895F894FFCFE7
S10F08164E56656C3A00506F733A0000B7
S9030000FC
