S0130000446179345F5461736B30322E737265636B
S11300004CC0000067C0000065C0000063C0000071
S113001061C0000024C4000039C400005BC00000BB
S113002059C0000057C0000055C0000053C0000074
S113003051C000004FC000004DC000004BC0000084
S113004037C4000047C0000045C0000043C00000A2
S113005041C000003FC000003DC000003BC00000A4
S113006039C0000037C0000035C0000033C00000B4
S113007031C000002FC000002DC000002BC00000C4
S113008029C0000027C0000025C0000056027002ED
S11300909602210343035D03770311241FBECFEFB0
S11300A0D0E1DEBFCDBF11E0A0E0B1E0E8E1FFE0C8
S11300B000E00BBF02C007900D92AE30B107D9F734
S11300C021E0AEE0B1E001C01D92A032B207E1F739
S11300D0D8D120C795CFCF93DF9300D000D0CDB730
S11300E0DEB7807F982F9C60998388608A8342E082
S11300F050E0BE016F5F7F4F80910001DED00F9012
S11301000F900F900F90DF91CF910895CF93DF93CD
S113011000D000D0CDB7DEB7982F907F292F2C6068
S1130120298398609A8320E1829FC0011124982F2B
S11301309C609B8388608C8344E050E0BE016F5FC9
S11301407F4F80910001B9D00F900F900F900F90C6
S1130150DF91CF9108958BD02FEF80E792E021506B
S113016080409040E1F700C0000080E3B4DF8FE1FD
S11301709EE40197F1F700C0000080E3ACDF8FE854
S113018091E00197F1F700C0000080E3A4DF8FE85D
S113019091E00197F1F700C0000080E29CDF8FE856
S11301A091E00197F1F700C0000088E2AFDF87EC2F
S11301B090E00197F1F700C0000088E0A7DF87EC2A
S11301C090E00197F1F700C0000081E09FDF8FED20
S11301D09EE20197F1F700C0000086E097DF87EC0C
S11301E090E00197F1F700C000008CE08FDF87EC0E
S11301F090E00197F1F700C000000895CF93DF93DA
S113020000D000D0CDB7DEB7982F907F292F2D6076
S1130210298399609A8320E1829FC0011124982F39
S11302209D609B8389608C8344E050E0BE016F5FD6
S11302307F4F8091000141D00F900F900F900F904D
S1130240DF91CF91089590E4899F600D1124862F4A
S113025080685CCF0895CF93DF93EC0102C02196B0
S1130260CDDF88818111FBCFDF91CF91089582B3D7
S1130270836082BB88E480937000089594EA90932D
S11302807400909174009923E4F78093730084E8D8
S113029080937400809174008823E4F70895809318
S11302A0730084E880937400809174008823E4F7D9
S11302B0089584E9809374000895EF92FF920F9358
S11302C01F93CF93DF937B018A01D8DFC0E0D0E096
S11302D00CC0F701EC0FFD1F8081E1DF8FE99FE087
S11302E00197F1F700C000002196C017D10788F3E9
S11302F0E0DFDF91CF911F910F91FF90EF90089570
S113030012B883B1806383B91092610080E389BF1E
S11303108AE08ABF80E487B987E886B980E88FBF1E
S11303200895AF92BF92CF92DF92EF92FF920F9314
S11303301F93CF93DF93CDB7DEB728970FB6F8940A
S1130340DEBF0FBECDBFE12CF12C23C06E2D660F96
S113035080E079DFF701EE0FFF1FEE5EFE4F818133
S11303608F9380818F9381E091E09F938F936E01AF
S113037085E0C80ED11CDF92CF92F1D2C6016BDFAB
S11303808FEFE81AF80A0F900F900F900F900F90CC
S11303900F9083E0E816F104CCF2C12CD12C0F2E7F
S11303A0F3E0EF2EF12CF02D2FC01C2D110F1C0D9E
S11303B0612F81E048DFF701EE0FFF1FEE5EFE4F75
S11303C081818F9380818F9381E091E09F938F93BC
S11303D05E0185E0A80EB11CBF92AF92C0D2C501E8
S11303E03ADF62E0610F81E02EDF86E091E033DFE7
S11303F08FEFC81AD80A8FEFE81AF80A0F900F90F7
S11304000F900F900F900F9086E0E816F1046CF2B5
S11304108C2D880FC80E6FEF6C0D81E014DF88E01F
S113042091E019DF6C2D81E00EDFF701EE0FFF1F65
S1130430EE5EFE4F81818F9380818F938AE091E0FD
S11304409F938F938E010F5F1F4F1F930F9387D23C
S1130450C80101DF0F900F900F900F900F900F9035
S113046028960FB6F894DEBF0FBECDBFDF91CF91B3
S11304701F910F91FF90EF90DF90CF90BF90AF90BE
S113048008953EDF68DE80E487B986B1806486B96A
S1130490349BFECF4091100150911101473051051A
S11304A008F03EC1FA01EA5BFF4F41C224B135B105
S11304B0A4E6B0E045D2062F172F282F392F0F2E90
S11304C0FAE03595279517950795FA95D1F7F02D0C
S11304D0440F551FFA01EE5EFE4F1183008320C1C5
S11304E084B195B1FA01EE0FFF1FEE5EFE4F9183CA
S11304F080839C01220F331F820F931F880F991F43
S1130500880F991F9C01992314F421503C4F832F89
S113051085958595932F990F990B440F551FFA01D3
S1130520EE5EFE4F019691838083FAC024B135B10B
S1130530FA01EE0FFF1FEE5EFE4F31832083FA01B6
S11305403197EE0FFF1FEE5EFE4F80819181813067
S1130550910591F08330910579F08530910561F032
S11305608730910549F08830910531F08A30910542
S113057019F08C30910509F56FE1629FC001639F0A
S1130580900D1124FA01EE0FFF1FEE5EFE4F9183D2
S113059080839C01992314F421503C4F832F85952B
S11305A08595932F990F990B440F551FFA01EE5E11
S11305B0FE4F019691838083B3C0029709F56CE1E5
S11305C0629FC001639F900D1124FA01EE0FFF1F7B
S11305D0EE5EFE4F918380839C01992314F4215095
S11305E03C4F832F85958595932F990F990B440F35
S11305F0551FFA01EE5EFE4F01969183808390C0F1
S11306006EE1629FC001639F900D1124FA01EE0F09
S1130610FF1FEE5EFE4F918380839C01992314F4A7
S113062021503C4F832F85958595932F990F990BD6
S1130630440F551FFA01EE5EFE4F019691838083AD
S11306406FC084B195B1440F551FFA01EE5EFE4FA1
S11306509C01220F331F820F931F880F991F880F4D
S1130660991F880F991F918380839C01992314F407
S113067021503C4F832F880F880B932F9595959588
S1130680908381834DC024B135B1ACE3B0E058D13F
S1130690062F172F282F392F0F2EFAE0359527957F
S11306A017950795FA95D1F7F02D440F551FFA01C8
S11306B0EE5EFE4F1183008333C024B135B1ACE349
S11306C0B0E03ED1062F172F282F392F0F2EFAE036
S11306D03595279517950795FA95D1F7F02D440F81
S11306E0551FFA01EE5EFE4F1183008319C024B139
S11306F035B1A4E6B0E024D1062F172F282F392FC7
S11307000F2EFAE03595279517950795FA95D1F7A9
S1130710F02D440F551FFA01EE5EFE4F1183008346
S113072000DEB1CE80911E0190911F0184369105A7
S11307304CF0E2E1F1E015861486828593850196FA
S11307409387828780911C0190911D01CC974CF076
S1130750E2E1F1E013861286808591850196918706
S1130760808780911A0190911B01CC974CF0E2E1B3
S1130770F1E011861086868197810196978386839E
S1130780809118019091190148974CF0E2E1F1E051
S11307901782168284819581019695838483809142
S11307A01401909115018130910591F083309105E8
S11307B079F08530910561F08730910549F08830F2
S11307C0910531F08A30910519F08C30910589F446
S11307D020911601309117012032310574F1E2E1C4
S11307E0F1E021E030E03583248301969383828312
S11307F024C08230910589F42091160130911701AB
S11308002D313105D4F0E2E1F1E021E030E035832F
S1130810248301969383828310C020911601309122
S113082017012F3131054CF0E2E1F1E021E030E035
S1130830358324830196938382838091140190915C
S113084015010D975CF0E2E1F1E081E090E0938323
S113085082838081918101969183808308951F9280
S11308600F920FB60F9211248F939F9380911001D2
S113087090911101019690931101809310019F9121
S11308808F910F900FBE0F901F9018951F920F928B
S11308900FB60F9211248F9386E082BF84E083BF4A
S11308A081E087BF8F910F900FBE0F901F90189516
S11308B01F920F920FB60F9211240BB60F922F9323
S11308C03F934F935F936F937F938F939F93AF93D4
S11308D0BF93EF93FF9380910E0190910F010196C6
S11308E090930F0180930E010A9761F4E2E1F1E025
S11308F08485958501969587848714DF10920F016E
S113090010920E0186E082BFFF91EF91BF91AF91EB
S11309109F918F917F916F915F914F913F912F9113
S11309200F900BBE0F900FBE0F901F901895EE0FF7
S1130930FF1F0024001C0BBE0790F691E02D0994C4
S1130940A29FB001B39FC001A39F700D811D11240C
S1130950911DB29F700D811D1124911D08950F9357
S11309601F93CF93DF93CDB7DEB72E970FB6F894CE
S1130970DEBF0FBECDBF0D891E8986E08C831A832E
S113098009838FEF9FE79E838D83AE01475E5F4FA0
S11309906F89788DCE01019610D0EF81F885E00F34
S11309A0F11F10822E960FB6F894DEBF0FBECDBF96
S11309B0DF91CF911F910F9108952F923F924F9203
S11309C05F926F927F928F929F92AF92BF92CF92DB
S11309D0DF92EF92FF920F931F93CF93DF93CDB7E4
S11309E0DEB72B970FB6F894DEBF0FBECDBF6C01F8
S11309F07B018A01FC0117821682838181FFBFC1BA
S1130A00CE0101963C01F6019381F70193FD859196
S1130A1093FF81917F01882309F4ADC1853239F4B4
S1130A2093FD859193FF81917F01853221F4B60175
S1130A3090E0D6D1E8CF912C212C312CFFE1F31595
S1130A40D8F08B3279F038F4803279F08332A1F423
S1130A50232D20611DC08D3261F0803369F4232D74
S1130A60216016C0832D8260382EE32DE4603E2E73
S1130A702AC0F32DF8601DC037FC2DC020ED280FCF
S1130A802A3040F08E32B9F436FC75C1232D20642F
S1130A90322E19C036FE06C08AE0989E200D11241D
S1130AA0922E11C0EAE02E9E200D1124222EF32D49
S1130AB0F0623F2E08C08C3621F4832D8068382ED6
S1130AC002C0883641F4F70193FD859193FF81912B
S1130AD07F018111B3CF982F9F7D9554933028F4D3
S1130AE00C5F1F4F9FE399830DC0833631F083372A
S1130AF071F0833509F055C020C0F80180818983E5
S1130B000E5F1F4F88248394912C530112C0280137
S1130B10F2E04F0E511CF801A080B18036FE03C0F4
S1130B20692D70E002C06FEF7FEFC5014ED14C011B
S1130B308201F32DFF773F2E15C0280122E0420EDB
S1130B40511CF801A080B18036FE03C0692D70E00D
S1130B5002C06FEF7FEFC5012DD14C01F32DF0687A
S1130B603F2E820133FC19C0822D90E0881699062D
S1130B70A0F4B60180E290E033D12A94F5CFF501D8
S1130B8037FC859137FE81915F01B60190E028D151
S1130B9021102A9421E0821A91088114910479F792
S1130BA0E1C0843611F0893639F5F80137FE07C003
S1130BB060817181828193810C5F1F4F08C06081C5
S1130BC07181072E000C880B990B0E5F1F4FF32DBC
S1130BD0FF763F2E97FF09C090958095709561959B
S1130BE07F4F8F4F9F4FF0683F2E2AE030E0A301E4
S1130BF033D1882E861844C0853731F4232D2F7EB7
S1130C00B22E2AE030E025C0932D997FB92E8F367D
S1130C10C1F018F4883579F0AEC0803719F0883700
S1130C2021F0A9C0E92FE061BE2EB4FE0DC0FB2D5A
S1130C30F460BF2E09C034FE0AC0292F2660B22EEC
S1130C4006C028E030E005C020E130E002C020E129
S1130C5032E0F801B7FE07C060817181828193811F
S1130C600C5F1F4F06C06081718180E090E00E5FD1
S1130C701F4FA301F1D0882E8618FB2DFF773F2E3E
S1130C8036FE0DC0232D2E7FA22E891458F434FE77
S1130C900BC032FC09C0832D8E7EA82E05C0B82C53
S1130CA0A32C03C0B82C01C0B92CA4FE0FC0FE01B4
S1130CB0E80DF11D8081803321F49A2D997EA92EAF
S1130CC009C0A2FE06C0B394B39404C08A2D8678EA
S1130CD009F0B394A3FC10C0A0FE06C0B21480F4C3
S1130CE0280C922C9B180DC0B21458F4B60180E263
S1130CF090E076D0B394F8CFB21418F42B1802C055
S1130D00982C212CA4FE0FC0B60180E390E068D09B
S1130D10A2FE16C0A1FC03C088E790E002C088E5EB
S1130D2090E0B6010CC08A2D867851F0A1FE02C075
S1130D308BE201C080E2A7FC8DE2B60190E050D0C6
S1130D40891430F4B60180E390E04AD09A94F8CF45
S1130D508A94F301E80DF11D8081B60190E040D042
S1130D608110F6CF222009F44ECEB60180E290E045
S1130D7037D02A94F7CFF6018681978102C08FEF8E
S1130D809FEF2B960FB6F894DEBF0FBECDBFDF9159
S1130D90CF911F910F91FF90EF90DF90CF90BF9074
S1130DA0AF909F908F907F906F905F904F903F9007
S1130DB02F900895FC010590615070400110D8F700
S1130DC0809590958E0F9F1F0895FC01615070408F
S1130DD001900110D8F7809590958E0F9F1F08956C
S1130DE00F931F93CF93DF93FB01238121FD03C056
S1130DF08FEF9FEF2CC022FF16C0468157812481BC
S1130E0035814217530744F4A081B1819D012F5FBE
S1130E103F4F318320838C93268137812F5F3F4F4F
S1130E203783268314C08B01EC01FB010084F18518
S1130E30E02D0995892BE1F6D80116968D919C91A8
S1130E401797019617969C938E931697CE01DF9170
S1130E50CF911F910F910895FA01AA27283051F1DB
S1130E60203181F1E8946F936E7F6E5F7F4F8F4FD7
S1130E709F4FAF4FB1E03ED0B4E03CD0670F781F36
S1130E80891F9A1FA11D680F791F8A1F911DA11D1B
S1130E906A0F711D811D911DA11D20D009F4689454
S1130EA03F912AE0269F11243019305D3193DEF6FC
S1130EB0CF010895462F4770405D4193B3E00FD0B2
S1130EC0C9F7F6CF462F4F70405D4A3318F0495D9D
S1130ED031FD4052419302D0A9F7EACFB4E0A69580
S1130EE09795879577956795BA95C9F700976105A2
S1130EF0710508959B01AC010A2E069457954795F8
S1130F0037952795BA95C9F7620F731F841F951FEC
S10B0F10A01D0895F894FFCF21
S1110F184E25303264003A002E00256400009D
S9030000FC
