S0130000446179365F5461736B30312E737265636A
S113000045C0000060C000005EC000005CC000008D
S11300105AC0000058C0000056C0000054C0000080
S113002052C0000050C000004EC000004CC0000090
S11300304AC0000048C0000046C0000044C00000A0
S113004042C0000040C000003EC000003CC00000B0
S11300503AC0000038C0000036C0000034C00000C0
S113006032C0000030C000002EC000002CC00000D0
S11300702AC0000028C0000026C0000024C00000E0
S113008022C0000020C000001EC0000011241FBEBA
S1130090CFEFD0E1DEBFCDBF11E0A0E0B1E0EAEDEB
S11300A0FDE000E00BBF02C007900D92AC36B10733
S11300B0D9F722E0ACE6B1E001C01D92A431B20749
S11300C0E1F738D288C69CCFCF93DF9300D000D01D
S11300D0CDB7DEB7807F982F9C60998388608A8330
S11300E042E050E0BE016F5F7F4F80910001D2D0AB
S11300F00F900F900F900F90DF91CF910895CF93B1
S1130100DF9300D000D0CDB7DEB7982F907F292F92
S11301102C60298398609A8320E1829FC001112476
S1130120982F9C609B8388608C8344E050E0BE01E0
S11301306F5F7F4F80910001ADD00F900F900F90B3
S11301400F90DF91CF9108957FD02FEF80E792E059
S1130150215080409040E1F700C0000080E3B4DF0C
S11301608FE19EE40197F1F700C0000080E3ACDF6B
S11301708FE891E00197F1F700C0000080E3A4DF6D
S11301808FE891E00197F1F700C0000080E29CDF66
S11301908FE891E00197F1F700C0000088E2AFDF3B
S11301A087EC90E00197F1F700C0000088E0A7DF3A
S11301B087EC90E00197F1F700C0000081E09FDF39
S11301C08FED9EE20197F1F700C0000086E097DF13
S11301D087EC90E00197F1F700C000008CE08FDF1E
S11301E087EC90E00197F1F700C000000895CF93E9
S11301F0DF9300D000D0CDB7DEB7982F907F292FA2
S11302002D60298399609A8320E1829FC001112483
S1130210982F9D609B8389608C8344E050E0BE01ED
S11302206F5F7F4F8091000135D00F900F900F903A
S11302300F90DF91CF91089590E4899F600D112470
S1130240862F80685CCF089582B3836082BB88E484
S113025080937000089594EA9093740090917400D0
S11302609923E4F78093730084E880937400809169
S113027074008823E4F708958093730084E88093DE
S11302807400809174008823E4F7089584E98093CE
S113029074000895EF92FF920F931F93CF93DF930F
S11302A07B018A01D8DFC0E0D0E00CC0F701EC0F7D
S11302B0FD1F8081E1DF8FE99FE00197F1F700C026
S11302C000002196C017D10788F3E0DFDF91CF91BA
S11302D01F910F91FF90EF9008950F931F93CF9369
S11302E0DF938C019C013695279536952795ABE7CE
S11302F0B4E16DD296958795805D79DF8EE277DFE4
S11303009801ADECBCEC63D2EC01D695C795D695BB
S1130310C795D695C7959E015AD296958795969579
S11303208795969587959C01220F331F880F991FF7
S1130330880F991F880F991F820F931F9E01281BF6
S1130340390BC901805D53DFCE01880F991FCC0F93
S1130350DD1FCC0FDD1FCC0FDD1FC80FD91FC80157
S11303608C1B9D0B805D43DFDF91CF911F910F911B
S113037008951092980081E28093990082E080931E
S11303809B0088E180939A0086E080939D00089505
S113039090919B0095FFFCCF80939C000895CF9390
S11303A0C82F8A3011F48DE0F3DF8C2FF1DF80E069
S11303B090E0CF910895109261001092620080E461
S11303C087B987E886B908958F71806487B985E312
S11303D08A95F1F7000086B1806486B93699FECF1C
S11303E024B185B190E0982F8827822B08950F932C
S11303F01F93CF93DF93482F50E0FA01E057FE4F4D
S1130400208130E0EA01CC0FDD1FCC0FDD1FCC0FC3
S1130410DD1FC20FD31FCC0FDD1FCE55DE4F088169
S11304201981FA01EE0FFF1FEE0FFF1FE858FE4F70
S113043080819181A281B381801B910BA109B109B3
S113044079836883860F971FA11DB11D80839183D3
S1130450A283B3832F5F3F4F27703078332334F464
S113046021503109286F3F6F2F5F3F4FFA01E0574A
S1130470FE4F2083689412F8B695A79597958795B3
S11304801694D1F7DF91CF911F910F910895CF93D7
S1130490C0E04BC082E08C0F97DF9C0190E011C05C
S11304A0EC2FF0E0EE0FFF1FEE0FFF1FEE0FFF1F0C
S11304B0E90FF11DEE0FFF1FEE55FE4F3183208330
S11304C09F5F983068F38C2F90E0A90160E070E0A2
S11304D0440F551F661F771F440F551F661F771F54
S11304E0440F551F661F771FFC01EE0FFF1FEE0F11
S11304F0FF1FE858FE4F4083518362837383FC01DE
S1130500E057FE4F1082880F991FFC01EE5FFD4FEC
S113051031832083FC01EA56FE4F31832083FC01A2
S1130520E459FE4F11821082CF5FC63008F4B2CF77
S1130530CF91089584B7806884BF84B7806884BFEE
S113054018DF39DFA4DF81E091E0909311028093FA
S113055010028AB38E678ABB8BB381788BBBF4DDC0
S113056000E010E069C082E0810F2EDF7C01BC0155
S1130570812F3DDFC12FD0E0FE01EE0FFF1FEE5FA4
S1130580FD4F20813181E216F30638F4FE01EE0FAF
S1130590FF1FEE5FFD4FF182E082FE01EE0FFF1FB1
S11305A0EA56FE4F208131812E153F0538F4FE01B5
S11305B0EE0FFF1FEA56FE4FF182E082AE01440FB8
S11305C0551FFA01EA56FE4F20813181FA01EE5F90
S11305D0FD4F60817181A901461B570B91F09C016D
S11305E0261B370BA4E6B0E0F2D09A0140E050E0BD
S11305F0CCD0FE01EE0FFF1FE459FE4F3183208360
S113060007C0FE01EE0FFF1FE459FE4F1182108256
S1130610FE01EE0FFF1FE459FE4F8081918180356A
S1130620910548F0219681E090E002C0880F991F5F
S1130630CA95E2F7082B1F5F163008F494CF8BB3EA
S11306408178082B0BBB60E080E0F6DDC0E00EC0D3
S1130650EC2FF0E0EE0FFF1FE459FE4F80819181F3
S11306603CDEC23010F480E2C2DDCF5FC33080F3E1
S113067080E2BDDD60E081E0DFDDC3E00EC0EC2F91
S1130680F0E0EE0FFF1FE459FE4F8081918125DEDB
S1130690C53010F480E2ABDDCF5FC63080F380E27A
S11306A0A6DD8FE091E0BAD010E05FC0812F90E02A
S11306B09C01220F331FF901E459FE4FC081D181FF
S11306C0F901EA56FE4F0081F180F901EE5FFD4F1A
S11306D0E080D180880F991F880F991FFC01E8588A
S11306E0FE4F80809180A280B380689412F8B69403
S11306F0A794979487941694D1F782E0810F64DECF
S1130700E82FF92FAE0156954795569547959A01CE
S1130710ABE7B4E15CD09695879564E6689F900159
S1130720699F300D1124C21BD30BDF93CF939A0121
S11307304ED0969587959F938F93FF920F93DF9258
S1130740EF929F928F92FF93EF931F921F9382E4F5
S113075091E09F938F934AD01F5F8DB79EB74096C9
S11307600FB6F8949EBF0FBE8DBF163008F49ECF0F
S11307708AE090E04ED09FEF23EC89E09150204036
S11307808040E1F700C00000EBCEA1E21A2EAA1BC4
S1130790BB1BFD010DC0AA1FBB1FEE1FFF1FA2172D
S11307A0B307E407F50720F0A21BB30BE40BF50B2A
S11307B0661F771F881F991F1A9469F760957095B3
S11307C0809590959B01AC01BD01CF010895A29F36
S11307D0B001B39FC001A39F700D811D1124911D11
S11307E0B29F700D811D1124911D0895CF93DF9345
S11307F0CDB7DEB7AE014B5F5F4FFA0161917191E6
S1130800AF01809110029091110238D0DF91CF9105
S11308100895609110027091110243C20F931F93C7
S1130820CF93DF93E0911002F0911102238121FF15
S11308301BC08C01D0E0C0E0F80181918F01609170
S1130840100270911102DB011896ED91FC91199739
S1130850882331F00995892B79F3DFEFCFEFECCFC3
S11308608AE00995892B19F08FEF9FEF02C08D2F35
S11308709C2FDF91CF911F910F9108952F923F925A
S11308804F925F926F927F928F929F92AF92BF929C
S1130890CF92DF92EF92FF920F931F93CF93DF9348
S11308A0CDB7DEB72B970FB6F894DEBF0FBECDBF22
S11308B06C017B018A01FC0117821682838181FF0E
S11308C0BFC1CE0101963C01F6019381F70193FD6E
S11308D0859193FF81917F01882309F4ADC185320D
S11308E039F493FD859193FF81917F01853221F441
S11308F0B60190E0D6D1E8CF912C212C312CFFE128
S1130900F315D8F08B3279F038F4803279F08332F1
S1130910A1F4232D20611DC08D3261F0803369F470
S1130920232D216016C0832D8260382EE32DE460D0
S11309303E2E2AC0F32DF8601DC037FC2DC020EDDB
S1130940280F2A3040F08E32B9F436FC75C1232DBD
S11309502064322E19C036FE06C08AE0989E200D0F
S11309601124922E11C0EAE02E9E200D1124222E75
S1130970F32DF0623F2E08C08C3621F4832D80685D
S1130980382E02C0883641F4F70193FD859193FF18
S113099081917F018111B3CF982F9F7D955493301E
S11309A028F40C5F1F4F9FE399830DC0833631F009
S11309B0833771F0833509F055C020C0F801808178
S11309C089830E5F1F4F88248394912C530112C096
S11309D02801F2E04F0E511CF801A080B18036FED0
S11309E003C0692D70E002C06FEF7FEFC5014ED1E7
S11309F04C018201F32DFF773F2E15C0280122E020
S1130A00420E511CF801A080B18036FE03C0692D4E
S1130A1070E002C06FEF7FEFC5012DD14C01F32DC3
S1130A20F0683F2E820133FC19C0822D90E08816B5
S1130A309906A0F4B60180E290E033D12A94F5CF70
S1130A40F50137FC859137FE81915F01B60190E095
S1130A5028D121102A9421E0821A9108811491044A
S1130A6079F7E1C0843611F0893639F5F80137FE9B
S1130A7007C060817181828193810C5F1F4F08C020
S1130A8060817181072E000C880B990B0E5F1F4F3C
S1130A90F32DFF763F2E97FF09C0909580957095B2
S1130AA061957F4F8F4F9F4FF0683F2E2AE030E0D3
S1130AB0A30133D1882E861844C0853731F4232D01
S1130AC02F7EB22E2AE030E025C0932D997FB92ED7
S1130AD08F36C1F018F4883579F0AEC0803719F03C
S1130AE0883721F0A9C0E92FE061BE2EB4FE0DC005
S1130AF0FB2DF460BF2E09C034FE0AC0292F2660E6
S1130B00B22E06C028E030E005C020E130E002C08B
S1130B1020E132E0F801B7FE07C060817181828173
S1130B2093810C5F1F4F06C06081718180E090E06B
S1130B300E5F1F4FA301F1D0882E8618FB2DFF777F
S1130B403F2E36FE0DC0232D2E7FA22E891458F47D
S1130B5034FE0BC032FC09C0832D8E7EA82E05C046
S1130B60B82CA32C03C0B82C01C0B92CA4FE0FC010
S1130B70FE01E80DF11D8081803321F49A2D997EC8
S1130B80A92E09C0A2FE06C0B394B39404C08A2D52
S1130B90867809F0B394A3FC10C0A0FE06C0B2147A
S1130BA080F4280C922C9B180DC0B21458F4B60192
S1130BB080E290E076D0B394F8CFB21418F42B18F6
S1130BC002C0982C212CA4FE0FC0B60180E390E053
S1130BD068D0A2FE16C0A1FC03C088E790E002C062
S1130BE088E590E0B6010CC08A2D867851F0A1FE0C
S1130BF002C08BE201C080E2A7FC8DE2B60190E066
S1130C0050D0891430F4B60180E390E04AD09A942D
S1130C10F8CF8A94F301E80DF11D8081B60190E0CC
S1130C2040D08110F6CF222009F44ECEB60180E2E6
S1130C3090E037D02A94F7CFF6018681978102C0DD
S1130C408FEF9FEF2B960FB6F894DEBF0FBECDBF8C
S1130C50DF91CF911F910F91FF90EF90DF90CF9094
S1130C60BF90AF909F908F907F906F905F904F90C8
S1130C703F902F900895FC01059061507040011041
S1130C80D8F7809590958E0F9F1F0895FC016150B1
S1130C90704001900110D8F7809590958E0F9F1F9A
S1130CA008950F931F93CF93DF93FB01238121FDBD
S1130CB003C08FEF9FEF2CC022FF16C046815781DF
S1130CC0248135814217530744F4A081B1819D01E9
S1130CD02F5F3F4F318320838C93268137812F5F91
S1130CE03F4F3783268314C08B01EC01FB01008442
S1130CF0F185E02D0995892BE1F6D80116968D91A1
S1130D009C911797019617969C938E931697CE01F4
S1130D10DF91CF911F910F910895FA01AA272830EE
S1130D2051F1203181F1E8946F936E7F6E5F7F4FB4
S1130D308F4F9F4FAF4FB1E03ED0B4E03CD0670F30
S1130D40781F891F9A1FA11D680F791F8A1F911D83
S1130D50A11D6A0F711D811D911DA11D20D009F4D3
S1130D6068943F912AE0269F11243019305D319315
S1130D70DEF6CF010895462F4770405D4193B3E0FE
S1130D800FD0C9F7F6CF462F4F70405D4A3318F0A5
S1130D90495D31FD4052419302D0A9F7EACFB4E056
S1130DA0A6959795879577956795BA95C9F700970E
S1130DB06105710508959B01AC010A2E06945795AF
S1130DC0479537952795BA95C9F7620F731F841F06
S10D0DD0951FA01D0895F894FFCFAD
S1130DDA4E0000000200000000CF010000000020C5
S1130DEA20202020202020206F726967696E616CA0
S1130DFA202F2066696C746572284D414629202F7C
S1130E0A206D696E202F206D6178202F206E6F72FD
S1130E1A6D004952202564203A202534752020206B
S1130E2A20253475202020202534752020202534BF
S10F0E3A75202025752E253032750A0025
S9030000FC
