S0130000446179345F5461736B30332E737265636A
S113000086C0000099C0000097C0000095C00000A1
S113001093C0000091C000008FC000008DC000009C
S11300208BC0000089C0000087C0000085C00000AC
S113003083C0000081C000007FC000007DC00000BC
S11300407BC0000079C0000077C0000075C00000CC
S113005073C0000071C000006FC000006DC00000DC
S11300606BC0000069C0000067C0000065C00000EC
S113007063C0000061C000005FC000005DC00000FC
S11300805BC0000059C0000057C00000076342363F
S1130090B79BD8A71A39685618AEBAAB558C1D3C15
S11300A0B7CC5763BD6DEDFD753EF6177231BF00D9
S11300B00000803F08000000BE922449123EABAA13
S11300C0AA2ABECDCCCC4C3E00000080BEABAAAA6E
S11300D0AA3E00000000BF000000803F00000000B6
S11300E000084178D3BB4387D1133D190E3CC3BDEF
S11300F04282AD2B3E68EC8276BED98FE1A93E4C9C
S113010080EFFFBE01C4FF7F3F0000000000112408
S11301101FBECFEFD0E1DEBFCDBF11E0A0E0B1E064
S1130120E2E7FEE000E00BBF02C007900D92A431AD
S1130130B107D9F71FD09BC663CF81E487B986B1D5
S1130140806486B93699FECF84B195B12FEF31EE34
S113015044E0215030404040E1F700C000000895E1
S1130160FC0104C05D9BFECF31968CB98081811166
S1130170F9CF0895CF93DF93CDB7DEB760970FB66D
S1130180F894DEBF0FBECDBF82E082B980E189B9A9
S11301901092900080E28BB988E18AB986E080935E
S11301A095001092610081E487B987E886B9789454
S11301B0C4DFBC01885691098432924020F080E06B
S11301C091E0CEDFF5CF072E000C880B990B53D0AE
S11301D027E231E348E95FEB15D120E034E443E161
S11301E057E4ADD015D07F936F938FE091E09F9348
S11301F08F938E010F5F1F4F1F930F935DD3C80121
S1130200AFDF0F900F900F900F900F900F90D0CF03
S113021004D06894B1118DC0089570D088F09F57B0
S113022090F0B92F9927B751A0F0D1F0660F771F3E
S1130230881F991F1AF0BA95C9F712C0B13081F01E
S113024077D0B1E0089574C0672F782F8827B85FFE
S113025039F0B93FCCF3869577956795B395D9F77F
S11302603EF490958095709561957F4F8F4F9F4F89
S11302700895E89409C097FB3EF490958095709595
S113028061957F4F8F4F9F4F9923A9F0F92F96E9DE
S1130290BB279395F695879577956795B795F11153
S11302A0F8CFFAF4BB0F11F460FF1BC06F5F7F4FF0
S11302B08F4F9F4F16C0882311F096E911C0772302
S11302C021F09EE8872F762F05C0662371F096E80B
S11302D0862F70E060E02AF09A95660F771F881FDA
S11302E0DAF7880F9695879597F9089557FD9058F2
S11302F0440F551F59F05F3F71F04795880F97FBE6
S1130300991F61F09F3F79F087950895121613069F
S11303101406551FF2CF4695F1DF08C016161706CE
S11303201806991FF1CF8695710561050894089503
S1130330E894BB2766277727CB0197F908950BD05C
S11303401AC10BD128F010D118F0952309F0D7C0A9
S1130350DCC01124EECFCADFA0F3959FD1F3950F33
S113036050E0551F629FF001729FBB27F00DB11D35
S1130370639FAA27F00DB11DAA1F649F6627B00DC5
S1130380A11D661F829F2227B00DA11D621F739FAE
S1130390B00DA11D621F839FA00D611D221F749FBC
S11303A03327A00D611D231F849F600D211D822F03
S11303B0762F6A2F11249F5750408AF0E1F088234A
S11303C04AF0EE0FFF1FBB1F661F771F881F915057
S11303D05040A9F79E3F510570F091C0AACF5F3FEE
S11303E0ECF3983EDCF3869577956795B795F7958A
S11303F0E7959F5FC1F7FE2B880F911D9695879512
S113040097F90895FA01EE0FFF1F30962105310583
S113041099F16115710561F48038BFE39B0749F1D7
S113042068949038810561F08038BFEF9B0741F0F4
S1130430992342F5FF3FE1053105210511F1E894C7
S11304400894E795D901AA2329F4AB2FBE2FF85FAE
S1130450D0F310C0FF5F70F4A695E0F7F73950F0C1
S113046019F0FF3A38F49F779F930CD00F9007FC54
S1130470905808953EF049C060E070E080E89FE342
S113048008954FE79F775F934F933F932F93C6D081
S11304902F913F914F915F9152DF05C019F40EF0F7
S11304A02EC046CF32C02ADFC8F39638C0F707F80B
S11304B00F92E8942BE33AEA48EB5FE74EDF0F92A2
S11304C00F920F924DB75EB70F92E8D0ECE8F0E0D0
S11304D01FD04F915F91EF91FF91E595EE1FFF1FA4
S11304E049F0FE57E0684427EE0F441FFA95E1F700
S11304F04195550B5AD00F9007FE4EC0089597F9B9
S11305009F6780E870E060E008959FEF80EC0895B5
S1130510DF93CF931F930F93FF92EF92DF927B01B0
S11305208C01689405C0DA2EEF0115DFFE01E89412
S1130530A5912591359145915591AEF3EF01F3D0F5
S1130540FE019701A801DA9479F7DF90EF90FF900C
S11305500F911F91CF91DF91089500240A941616EC
S1130560170618060906089500240A94121613069D
S1130570140605060895092E0394000C11F488232B
S113058052F0BB0F40F4BF2B11F460FF04C06F5F47
S11305907F4F8F4F9F4F08959B01AC0160E070E047
S11305A080E89FE313C1ABCF79C1A8DEE8F39923B8
S11305B0D9F3940F511DBBF39150504094F059F06E
S11305C0882332F0660F771F881F91505040C1F77F
S11305D09E3F510544F7880F911D9695879597F98D
S11305E008955F3FACF0983E9CF0BB2786957795C5
S11305F06795B79508F4B1609395C1F7BB0F58F7A9
S113060011F460FFE8CF6F5F7F4F8F4F9F4FE3CFB1
S113061090CE0EF043C179CF689471CF6FDEC8F3EA
S11306209923D1F3C6F3DF93CF931F930F93FF92D4
S1130630C92FDD2788232AF02197660F771F881F8B
S1130640DAF720E030E040E85FEB9FE3883920F000
S1130650803E30F021968F7755D0E4EBF0E003C074
S113066051D0E1EEF0E054DF8B01BE01EC01FB2E32
S11306706F5771097595771F880B990BFCDD28E17D
S113068032E741E35FE367DEAF2D9801AE01FF90EF
S11306900F911F91CF91DF9146D06DCFFA01DC010C
S11306A0AA0FBB1F9B01AC01BF5728F42227332795
S11306B0442750781FC0B75188F4AB2F00244695C7
S11306C037952795011CA395D2F3002069F0220FDA
S11306D0331F441FB395DAF30DD013C06130710595
S11306E0A0E88A07B94630F49B01AC016627772756
S11306F088279078309621F0208331834283538376
S113070008955058BB27AA270ED035CF26DF30F0E6
S11307102BDF20F031F49F3F11F41EF4F6CE0EF4DB
S1130720E095E7FBECCEE92FE1DD80F3BA17620731
S113073073078407950718F071F49EF5F9CD0EF44C
S1130740E0950B2EBA2FA02D0B01B90190010C01DD
S1130750CA01A0011124FF27591B99F0593F50F4F5
S1130760503E68F11A16F040A22F232F342F44274D
S1130770585FF3CF469537952795A795F040539545
S1130780C9F77EF41F16BA0B620B730B840BBAF015
S11307909150A1F0FF0FBB1F661F771F881FC2F780
S11307A00EC0BA0F621F731F841F48F48795779594
S11307B06795B795F7959E3F08F0B3CF9395880F4B
S11307C008F09927EE0F9795879508950CD0D3CE0E
S11307D0CBDE40F0C2DE30F021F45F3F19F08FCE63
S11307E05111A7CD92CE82DD98F39923C9F35523F5
S11307F0B1F3951B550BBB27AA2762177307840710
S113080038F09F5F5F4F220F331F441FAA1FA9F3C5
S113081033D00E2E3AF0E0E830D091505040E695B7
S1130820001CCAF729D0FE2F27D0660F771F881F18
S1130830BB1F261737074807AB07B0E809F0BB0B07
S1130840802DBF01FF2793585F4F2AF09E3F51052B
S113085068F055CE6ECD5F3FECF3983EDCF38695A1
S113086077956795B795F7959F5FC9F7880F911DA1
S11308709695879597F90895E1E0660F771F881F8D
S1130880BB1F621773078407BA0720F0621B730B40
S1130890840BBA0BEE1F88F7E09508959F3F31F063
S11308A0915020F4879577956795B795880F911D9A
S11308B09695879597F908950F931F93CF93DF9398
S11308C0CDB7DEB72E970FB6F894DEBF0FBECDBFFF
S11308D00D891E8986E08C831A8309838FEF9FE735
S11308E09E838D83AE01475E5F4F6F89788DCE0105
S11308F0019610D0EF81F885E00FF11F10822E963B
S11309000FB6F894DEBF0FBECDBFDF91CF911F911C
S11309100F9108952F923F924F925F926F927F9220
S11309208F929F92AF92BF92CF92DF92EF92FF92FB
S11309300F931F93CF93DF93CDB7DEB72B970FB6EB
S1130940F894DEBF0FBECDBF6C017B018A01FC01B0
S113095017821682838181FFBFC1CE0101963C01BB
S1130960F6019381F70193FD859193FF81917F01B6
S1130970882309F4ADC1853239F493FD859193FF41
S113098081917F01853221F4B60190E0D6D1E8CF80
S1130990912C212C312CFFE1F315D8F08B3279F016
S11309A038F4803279F08332A1F4232D20611DC004
S11309B08D3261F0803369F4232D216016C0832DBC
S11309C08260382EE32DE4603E2E2AC0F32DF860B9
S11309D01DC037FC2DC020ED280F2A3040F08E3288
S11309E0B9F436FC75C1232D2064322E19C036FEAD
S11309F006C08AE0989E200D1124922E11C0EAE0D0
S1130A002E9E200D1124222EF32DF0623F2E08C0BD
S1130A108C3621F4832D8068382E02C0883641F448
S1130A20F70193FD859193FF81917F018111B3CFEC
S1130A30982F9F7D9554933028F40C5F1F4F9FE3AC
S1130A4099830DC0833631F0833771F0833509F013
S1130A5055C020C0F801808189830E5F1F4F882410
S1130A608394912C530112C02801F2E04F0E511CC3
S1130A70F801A080B18036FE03C0692D70E002C089
S1130A806FEF7FEFC5014ED14C018201F32DFF774B
S1130A903F2E15C0280122E0420E511CF801A0800F
S1130AA0B18036FE03C0692D70E002C06FEF7FEFA6
S1130AB0C5012DD14C01F32DF0683F2E820133FC8A
S1130AC019C0822D90E088169906A0F4B60180E240
S1130AD090E033D12A94F5CFF50137FC859137FEA8
S1130AE081915F01B60190E028D121102A9421E080
S1130AF0821A91088114910479F7E1C0843611F0C7
S1130B00893639F5F80137FE07C060817181828129
S1130B1093810C5F1F4F08C060817181072E000C08
S1130B20880B990B0E5F1F4FF32DFF763F2E97FF17
S1130B3009C090958095709561957F4F8F4F9F4F19
S1130B40F0683F2E2AE030E0A30133D1882E8618C6
S1130B5044C0853731F4232D2F7EB22E2AE030E0B5
S1130B6025C0932D997FB92E8F36C1F018F488359E
S1130B7079F0AEC0803719F0883721F0A9C0E92F89
S1130B80E061BE2EB4FE0DC0FB2DF460BF2E09C083
S1130B9034FE0AC0292F2660B22E06C028E030E0B9
S1130BA005C020E130E002C020E132E0F801B7FEE8
S1130BB007C060817181828193810C5F1F4F06C0E1
S1130BC06081718180E090E00E5F1F4FA301F1D03E
S1130BD0882E8618FB2DFF773F2E36FE0DC0232D61
S1130BE02E7FA22E891458F434FE0BC032FC09C0A7
S1130BF0832D8E7EA82E05C0B82CA32C03C0B82C40
S1130C0001C0B92CA4FE0FC0FE01E80DF11D8081C6
S1130C10803321F49A2D997EA92E09C0A2FE06C024
S1130C20B394B39404C08A2D867809F0B394A3FCDA
S1130C3010C0A0FE06C0B21480F4280C922C9B189D
S1130C400DC0B21458F4B60180E290E076D0B394AB
S1130C50F8CFB21418F42B1802C0982C212CA4FE3F
S1130C600FC0B60180E390E068D0A2FE16C0A1FCDC
S1130C7003C088E790E002C088E590E0B6010CC0AC
S1130C808A2D867851F0A1FE02C08BE201C080E279
S1130C90A7FC8DE2B60190E050D0891430F4B6017F
S1130CA080E390E04AD09A94F8CF8A94F301E80D57
S1130CB0F11D8081B60190E040D08110F6CF222052
S1130CC009F44ECEB60180E290E037D02A94F7CFF3
S1130CD0F6018681978102C08FEF9FEF2B960FB6A6
S1130CE0F894DEBF0FBECDBFDF91CF911F910F915E
S1130CF0FF90EF90DF90CF90BF90AF909F908F9038
S1130D007F906F905F904F903F902F900895FC01DB
S1130D100590615070400110D8F7809590958E0F22
S1130D209F1F0895FC016150704001900110D8F795
S1130D30809590958E0F9F1F08950F931F93CF93C7
S1130D40DF93FB01238121FD03C08FEF9FEF2CC0B4
S1130D5022FF16C0468157812481358142175307EB
S1130D6044F4A081B1819D012F5F3F4F31832083E3
S1130D708C93268137812F5F3F4F3783268314C09E
S1130D808B01EC01FB010084F185E02D0995892B91
S1130D90E1F6D80116968D919C91179701961796B6
S1130DA09C938E931697CE01DF91CF911F910F9153
S1130DB00895FA01AA27283051F1203181F1E894ED
S1130DC06F936E7F6E5F7F4F8F4F9F4FAF4FB1E03A
S1130DD03ED0B4E03CD0670F781F891F9A1FA11D35
S1130DE0680F791F8A1F911DA11D6A0F711D811D36
S1130DF0911DA11D20D009F468943F912AE0269FFB
S1130E0011243019305D3193DEF6CF010895462F59
S1130E104770405D4193B3E00FD0C9F7F6CF462F3A
S1130E204F70405D4A3318F0495D31FD40524193A3
S1130E3002D0A9F7EACFB4E0A69597958795779560
S1130E406795BA95C9F700976105710508959B01E7
S1130E50AC010A2E06945795479537952795BA9570
S1130E60C9F7620F731F841F951FA01D0895F8947E
S1050E70FFCFAE
S1130E726F7574206F662072616E67650D0A0025B6
S1070E82640D0A00ED
S9030000FC
