:100000004FC0000062C0000060C000005EC0000081
:100010005CC000005AC0000058C0000056C000007C
:1000200054C0000052C0000050C000004EC000008C
:100030004CC000004AC0000048C0000046C000009C
:1000400044C0000042C0000040C000003EC00000AC
:100050003CC000003AC0000038C0000036C00000BC
:1000600034C0000032C0000030C000002EC00000CC
:100070002CC000002AC0000028C0000026C00000DC
:1000800024C0000022C0000020C00000B800BE0054
:10009000C400CA00D000D600DC00E200E800ED0099
:1000A00011241FBECFEFD0E1DEBFCDBF11E0A0E035
:1000B000B1E0ECE2F2E000E00BBF02C007900D926D
:1000C000A036B107D9F792D0AFC09ACF5F9BFECFD1
:1000D0008CB10895FC0104C05D9BFECF8CB93196B4
:1000E00080818111F9CF089581E00DC0982F9095FE
:1000F0009BBB2FEF31EE94E0215030409040E1F770
:1001000000C00000880F803889F780958BBB2FEFE7
:1001100031EE84E0215030408040E1F700C0000023
:10012000089580E80DC0982F90959BBB2FEF31EE7E
:1001300094E0215030409040E1F700C000008695E7
:10014000813089F780958BBB2FEF31EE84E0215011
:1001500030408040E1F700C00000089590E0FC01CD
:10016000F097EA30F10508F03DC0EA5BFF4F53C05D
:100170008EEF8BBB80E091E0ADCF08958DEF8BBB10
:1001800089E091E0A7CF08958BEF8BBB82E191E0EE
:10019000A1CF089587EF8BBB8BE191E09BCF0895B2
:1001A0008FEE8BBB84E291E095CF08958FED8BBBF2
:1001B0008DE291E08FCF08958FEB8BBB86E391E0CA
:1001C00089CF08958FE78BBB8FE391E083CF0895AC
:1001D00088E491E07FDF88CF08958EE491E07ADFB4
:1001E000A0CF089585E591E075CF08958FEF8ABB84
:1001F00090E199B91092900090E29BB998E19AB978
:1002000096E09093950092E092B990E89FBF8BBBE7
:100210005DDFA4DFFDCFEE0FFF1F0024001C0BBE2F
:0C0220000790F691E02D0994F894FFCFB0
:10022C00304C4544206F6E2000314C4544206F6E9D
:10023C002000324C4544206F6E2000334C45442046
:10024C006F6E2000344C4544206F6E2000354C45B9
:10025C0044206F6E2000364C4544206F6E200037D2
:10026C004C4544206F6E20004C45465420005249AA
:10027C0047485420004552524F52204E554D2000B5
:00000001FF
