S0130000446179345F5461736B30352E7372656368
S113000045C0000058C0000056C0000054C00000A5
S113001052C0000050C000004EC000004CC00000A0
S11300204AC0000048C0000046C0000044C00000B0
S113003042C0000040C000003EC000003CC00000C0
S11300403AC0000038C0000036C0000034C00000D0
S113005032C0000030C000002EC000002CC00000E0
S11300602AC0000028C0000026C0000024C00000F0
S113007022C0000020C000001EC000001CC0000000
S11300801AC0000018C0000016C0000011241FBED2
S1130090CFEFD0E1DEBFCDBF11E0A0E0B1E0EEE0F4
S11300A0F3E000E00BBF02C007900D92A631B10748
S11300B0D9F792D02AC1A4CF80E887BB8AE08FBD4C
S11300C08BE18EBD87E893E197BD86BD089582E0FC
S11300D082B980E189B91092900080E28BB988E1FD
S11300E08AB986E080939500089584EF91E0909317
S11300F07900809378002FEF83ED90E321508040C6
S11301009040E1F700C000000895992314F480E0C2
S113011090E0853B910514F084EB90E02AEF30E009
S1130120DC0189D024EB30E040E050E068D0265078
S11301303F4F30937900209378000895FC0104C068
S11301405D9BFECF31968CB980818111F9CF0895E2
S11301505F9BFECF8CB108950F931F93CF93DF93D2
S113016000E010E0C0E0D0E0F3DF90ED980F9A30AB
S113017090F49E01220F331FCC0FDD1FCC0FDD1F27
S1130180CC0FDD1FC20FD31F90E0C097C80FD91F3B
S113019001E010E0E9CF0115110531F3CE01DF9143
S11301A0CF911F910F910895CF93DF9300D000D08A
S11301B000D0CDB7DEB74AE0BE016F5F7F4F72D08B
S11301C0CE010196BBDF26960FB6F894DEBF0FBEB4
S11301D0CDBFDF91CF9108956FDF79DF86DF80E0B7
S11301E091E0ACDFB9DFEC018FE091E0A7DFCE0155
S11301F0DBDF8CE091E0A2DFCE0187DFF3CF052EB9
S113020097FB16F400940FD057FD05D01AD007FCC5
S113021002D046F408C050954095309521953F4F43
S11302204F4F5F4F089590958095709561957F4FDE
S11302308F4F9F4F089527D0B7FF0895821B930BCC
S11302400895A1E21A2EAA1BBB1BFD010DC0AA1F13
S1130250BB1FEE1FFF1FA217B307E407F50720F02B
S1130260A21BB30BE40BF50B661F771F881F991FA6
S11302701A9469F760957095809590959B01AC01EF
S1130280BD01CF010895A29FB001B39FC001A39FF8
S1130290700D811D1124911DB29F700D811D1124BB
S11302A0911D0895BB274A3031F4992322F4BDE20D
S11302B0909581959F4F01C0BB27FB015527AA2725
S11302C0880F991FAA1FA41710F0A41B83955051DF
S11302D0B9F7A05DAA3308F0A95DA193009779F757
S11302E0B111B1931192CB0100C0DC01FC01672F65
S11302F071917723E1F7329704C07C916D937083F9
S11103006291AE17BF07C8F30895F894FFCFBB
S113030E73746172745F736572766F210D0A007473
S109031E75726E3A200026
S9030000FC
