S00F00004C542E766572362E73726563C4
S113000051C000006EC000006CC00000DBC10000E5
S113001014C200007CC10000AEC1000062C0000038
S113002060C000005EC000005CC000005AC0000058
S113003058C0000056C0000054C0000052C0000068
S113004050C000004EC000004CC000004AC0000078
S113005048C0000046C0000044C0000042C0000088
S113006040C000003EC000003CC000003AC0000098
S113007038C0000036C0000034C0000032C00000A8
S113008030C000002EC000002CC000004B124E12E5
S11300905D126012C212D012D212D412D612D81229
S11300A0DA12DD1211241FBECFEFD0E1DEBFCDBFC7
S11300B011E0A0E0B1E0ECEBFCE200E00BBF02C019
S11300C007900D92AC37B107D9F721E0ACE7B1E066
S11300D001C01D92A53EB207E1F70E9405120C94DF
S11300E05C168ECFCF93DF9300D000D0CDB7DEB7B0
S11300F0807F982F9C60998388608A8342E050E0D7
S1130100BE016F5F7F4F80910001DED00F900F9092
S11301100F900F90DF91CF910895CF93DF9300D08C
S113012000D0CDB7DEB7982F907F292F2C6029837C
S113013098609A8320E1829FC0011124982F9C60CB
S11301409B8388608C8344E050E0BE016F5F7F4FE7
S113015080910001B9D00F900F900F900F90DF9114
S1130160CF9108958BD02FEF80E792E0215080400B
S11301709040E1F700C0000080E3B4DF8FE19EE42B
S11301800197F1F700C0000080E3ACDF8FE891E055
S11301900197F1F700C0000080E3A4DF8FE891E04D
S11301A00197F1F700C0000080E29CDF8FE891E046
S11301B00197F1F700C0000088E2AFDF87EC90E020
S11301C00197F1F700C0000088E0A7DF87EC90E01A
S11301D00197F1F700C0000081E09FDF8FED9EE200
S11301E00197F1F700C0000086E097DF87EC90E00C
S11301F00197F1F700C000008CE08FDF87EC90E0FE
S11302000197F1F700C000000895CF93DF9300D069
S113021000D0CDB7DEB7982F907F292F2D6029838A
S113022099609A8320E1829FC0011124982F9D60D8
S11302309B8389608C8344E050E0BE016F5F7F4FF5
S11302408091000141D00F900F900F900F90DF919B
S1130250CF91089590E4899F600D1124862F8068C2
S11302605CCF0895CF93DF93EC0102C02196CDDFDC
S113027088818111FBCFDF91CF91089582B3836090
S113028082BB88E480937000089594EA909374008C
S1130290909174009923E4F78093730084E8809329
S11302A07400809174008823E4F7089580937300A8
S11302B084E880937400809174008823E4F708959F
S11302C084E9809374000895EF92FF920F931F9333
S11302D0CF93DF937B018A01D8DFC0E0D0E00CC06C
S11302E0F701EC0FFD1F8081E1DF8FE99FE00197AB
S11302F0F1F700C000002196C017D10788F3E0DFB2
S1130300DF91CF911F910F91FF90EF9008951F926D
S11303100F920FB60F9211248F939F938091D70160
S11303209091D801892B39F48AE090E09093D80118
S11303308093D70119C08091D7019091D8010A9771
S113034039F48BE090E09093D8018093D7010CC0EE
S11303508091D7019091D8010B9731F481E090E01E
S11303609093D8018093D7019F918F910F900FBEE6
S11303700F901F9018951F920F920FB60F92112491
S11303808F939F938091D7019091D801019731F079
S11303908091D7019091D8010A9739F482E090E0D6
S11303A09093D8018093D70106C083E090E09093A6
S11303B0D8018093D7019F918F910F900FBE0F901A
S11303C01F9018951F920F920FB60F9211248F93BE
S11303D09F938091D7019091D801049739F485E0D7
S11303E090E09093D8018093D70120C08091D701E9
S11303F09091D801059739F486E090E09093D80164
S11304008093D70113C08091D7019091D8010697AA
S113041039F487E090E09093D8018093D70106C027
S113042084E090E09093D8018093D7019F918F91BD
S11304300F900FBE0F901F9018951F920F920FB63A
S11304400F9211248F939F9385E090E09093D801AD
S11304508093D7019F918F910F900FBE0F901F90A3
S113046018958FEF8ABB8BBB08958FE687BB82EA12
S11304708FBD8BE18EBD10927A0089EF90E097BD1D
S113048086BD1DBC1CBC88B3807F856088BB089575
S11304908BEC82B981B3807F81BB82B38F6082BBD6
S11304A083B1806383B98CE389BF80EA80936A0057
S11304B08AE08ABF089556CE089583E08093610050
S11304C080E487B987E886B9089581E08093610064
S11304D00895C7DFCADFDCDFEEDFEFDFF6CF089574
S11304E0806487B986B1806486B93699FECF84B1B9
S11304F095B1089541E050E02AC0CA010196FA017D
S1130500EE0FFF1FE40FF51FEE0FFF1FE20FF31FA7
S1130510EE0FFF1FE756FE4F60817181FC01EE0F65
S1130520FF1FE80FF91FEE0FFF1FE20FF31FEE0F7F
S1130530FF1FE756FE4F718360832F5F3F4F02C05A
S113054020E030E026303105C4F2415051095523F2
S1130550BCF70895CF93DF93CDDFC2E0D0E02EC087
S1130560CE01BEDF9E0122503109A901440F551F5F
S1130570FA01E756FE4F91838083FA01E753FE4F59
S113058040815181841795073CF0F901EE0FFF1F5C
S1130590E753FE4F91838083F901EE0FFF1FE75E5F
S11305A0FE4F40815181481759073CF0220F331FF9
S11305B0F901E75EFE4F918380832196C830D1050F
S11305C07CF222E030E03BC0C9010297880F991FFA
S11305D0FC01E756FE4F40815181FC01E753FE4F79
S11305E060817181FC01E75EFE4F80819181860FFD
S11305F0971F99230CF401969595879548175907E9
S11306007CF44BB3B9016150710981E090E002C000
S1130610880F991F6A95E2F7809584238BBB0DC0E0
S11306204BB3B9016150710981E090E002C0880FB9
S1130630991F6A95E2F7842B8BBB2F5F3F4F2830BD
S1130640310514F2DF91CF91089580E090E040E00D
S113065050E00DC0FC01EE0FFF1FE752FE4F20815A
S113066031812333310514F44F5F5F4F0196863097
S1130670910584F34530510514F081E001C080E018
S113068081110EC090919401992351F0209195010C
S1130690309196012F5F3F4F30939601209395013F
S11306A08093940108958091D9019091DA01C397C0
S11306B004F58091DB019091DC01C397E4F480910F
S11306C0DD019091DE01C397C4F48091DF01909124
S11306D0E001C397A4F48091E1019091E201C397F2
S11306E084F48091E3019091E401C39764F080E085
S11306F00BC080E009C080E007C080E005C080E056
S113070003C080E001C081E081110EC0909194018A
S1130710992351F020919501309196012F5F3F4F1D
S113072030939601209395018093940108950F933B
S11307301F93CF93DF93DEDE02E010E034C0C801E4
S1130740CFDEE8012297AE01440F551FFA01E756A8
S1130750FE4F91838083FA01E753FE4F208131815C
S1130760FA01E75EFE4F408151812417350721F0DD
S1130770F901E41BF50B02C0E1E0F0E0DC01A41B8D
S1130780B50B24E630E00E9435139F01FF0F440BA4
S1130790550B0E940113CC0FDD1FC752DE4F398366
S11307A028830F5F1F4F083011054CF282E090E060
S11307B028C0FC013297EE0FFF1FE752FE4F208145
S11307C03181223331057CF44BB3BC016150710992
S11307D021E030E002C0220F331F6A95E2F7209532
S11307E024232BBB0DC04BB3BC016150710921E024
S11307F030E002C0220F331F6A95E2F7242B2BBB93
S1130800019688309105ACF28091D9019091DA017A
S1130810C2970CF069C080919001909191011816D3
S113082019060CF03DC080919201909193010196BC
S11308309093930180939201029794F186B597B5B2
S11308404EE1489F9001499F300D1124369527951C
S113085036952795ABE7B4E10E94261396958795C4
S11308609BBD8ABD19BC18BC2FEF8FE097E22150C5
S113087080409040E1F700C0000084E090E0909355
S1130880D8018093D70181E080938F011092960163
S11308901092950160E0DEDC8DE291E0E3DC80C043
S11308A088B3807F8A6088BB86B597B54EE1489F40
S11308B09001499F300D112436952795369527953B
S11308C0ABE7B4E10E942613969587959BBD8ABD3C
S11308D019BC18BC2FEF89E698E121508040904064
S11308E0E1F700C000005CC08091E3019091E40155
S11308F0C2976CF58091900190919101019690932B
S113090091018093900188B3807F8A6088BB86B50B
S113091097B54EE1489F9001499F300D11243695BB
S1130920279536952795ABE7B4E10E942613969553
S1130930879599BD88BD1BBC1ABC2FEF89E698E149
S1130940215080409040E1F700C0000029C088B3E6
S1130950807F856088BB86B597B54EE1489F90013E
S1130960499F300D11243695279536952795ABE789
S1130970B4E10E942613969587959BBD8ABD86B5E2
S113098097B5489F9001499F300D112436952795BE
S1130990369527950E9426139695879599BD88BD0F
S11309A0DF91CF911F910F9108950F931F93CF93D0
S11309B0DF9300D01F92CDB7DEB760E080E04ADC61
S11309C08DE491E04FDC60E081E044DC80919601AD
S11309D08F93809195018F9386E591E09F938F93F8
S11309E08E010F5F1F4F1F930F930E948113C80145
S11309F039DC0F900F900F900F900F900F900F9085
S1130A000F900F90DF91CF911F910F910895AC013A
S1130A1088B3807F896088BB86B597B5EEE1E89F8F
S1130A209001E99F300D1124369527953695279529
S1130A30ABE7B4E10E942613969587959BBD8ABDCA
S1130A4086B597B5E89F9001E99F300D112436953E
S1130A502795369527950E9426139695879599BDD7
S1130A6088BD80E090E007C0EFE3FCE93197F1F73F
S1130A7000C000000A9684179507B0F31BBC1ABC8B
S1130A8019BC18BC0895CF92DF92EF92FF920F9396
S1130A901F93CF93DF932EDD02E010E04CC0C8011A
S1130AA01FDDE8012297AE01440F551FFA01E756F6
S1130AB0FE4F91838083FA01E753FE4F0190F0814A
S1130AC0E02DDA01A75EBE4FED90FC90EE15FF0518
S1130AD019F0EE19FF0902C0E1E0F0E0DE0116961C
S1130AE0AA0FBB1FA756BE4F2D913C91820F931F97
S1130AF0DE011C96AA0FBB1FA756BE4F2D913C9139
S1130B00820F931F63E070E00E94EE12DB01AE19C6
S1130B10BF0924E630E00E9435139F01FF0F440B08
S1130B20550B0E940113CC0FDD1FC752DE4F3983D2
S1130B3028830F5F1F4F083011050CF4B0CF82E0FB
S1130B4090E028C0FC013297EE0FFF1FE752FE4FE2
S1130B5020813181223331057CF44BB3BC016150D7
S1130B60710921E030E002C0220F331F6A95E2F7D9
S1130B70209524232BBB0DC04BB3BC0161507109DC
S1130B8021E030E002C0220F331F6A95E2F7242BE4
S1130B902BBB019688309105ACF21092980110920B
S1130BA0970120E030E0C0E0D0E024C0C901880F04
S1130BB0991FFC01E752FE4F40815181FC01EF5F18
S1130BC0FE4F60817181469FC001479F900D569FE3
S1130BD0900D11246091970170919801860F971FD1
S1130BE09093980180939701423351050CF4219618
S1130BF02F5F3F4F26303105CCF227DD80919501E0
S1130C00909196010197029730F4C630D10519F4FA
S1130C108CE291E0FCDE809195019091960103971E
S1130C2031F4C530D10519F488EC90E0F0DE1C16DF
S1130C301D0684F48091970190919801009751F0DA
S1130C401CF081E090E002C08FEF9FEF909387014A
S1130C5080938601CD2B99F586B597B5A0E0B0E0D9
S1130C60AC01BD01440F551F661F771F440F551F6C
S1130C70661F771F840F951FA61FB71FAC01BD0108
S1130C80440F551F661F771F440F551F661F771F9C
S1130C908C019D01040F151F261F371FC901B801C0
S1130CA024E630E040E050E00E940113A091860168
S1130CB0B09187010E943B136B017C0138C086B55B
S1130CC097B5A0E0B0E0AC01BD01440F551F661F0D
S1130CD0771F440F551F661F771F840F951FA61F8C
S1130CE0B71FAC01BD01440F551F661F771F440F8A
S1130CF0551F661F771F8C019D01040F151F261FAA
S1130D00371FC901B80124E630E040E050E00E94FA
S1130D100113A0919701B09198010E943B1320E226
S1130D2033E040E050E00E94011369017A0186B586
S1130D3097B544E1489F9001499F300D11243695A1
S1130D40279536952795ABE7B4E10E942613BC019D
S1130D50769567952091270130912801A9014C0DC2
S1130D605D1D2C193D094617570734F4CB01841B2C
S1130D70950BAC0192E001C091E0E6B5F7B5E4173C
S1130D80F50710F446B557B52617370734F49860BD
S1130D90FB01E21BF30B9F0101C0946066B577B5BC
S1130DA06217730710F426B537B588B3807F892B93
S1130DB088BB5BBD4ABD39BD28BDDF91CF911F9172
S1130DC00F91FF90EF90DF90CF900895CF92DF9234
S1130DD0EF92FF920F931F93CF93DF9300D01F9254
S1130DE0CDB7DEB787DB6894EE24E1F8F12C4FC071
S1130DF0C70176DB870102501109A801440F551F72
S1130E00FA01E756FE4F91838083FA01E753FE4FC0
S1130E100190F081E02DDA01A75EBE4FCD90DC9009
S1130E20EC15FD0519F0EC19FD0902C0E1E0F0E054
S1130E30D8011696AA0FBB1FA756BE4F2D913C9101
S1130E40820F931FD8011C96AA0FBB1FA756BE4F33
S1130E502D913C91820F931F63E070E00E94EE128B
S1130E60DB01AC19BD0924E630E00E9435139F0173
S1130E70FF0F440B550B0E940113000F111FF801C3
S1130E80E752FE4F318320830FEFE01AF00A18E097
S1130E90E116F1040CF4ACCF82E090E028C0FC0130
S1130EA03297EE0FFF1FE752FE4F2081318122332C
S1130EB031057CF44BB3BC016150710921E030E091
S1130EC002C0220F331F6A95E2F7209524232BBB1F
S1130ED00DC04BB3BC016150710921E030E002C088
S1130EE0220F331F6A95E2F7242B2BBB019688301F
S1130EF09105ACF2109298011092970120E030E035
S1130F0000E010E025C0C901880F991FFC01E752D9
S1130F10FE4F40815181FC01EF5FFE4F6081718182
S1130F20469FC001479F900D569F900D11246091DC
S1130F30970170919801860F971F90939801809361
S1130F4097014233510514F40F5F1F4F2F5F3F4F3A
S1130F5026303105C4F2A7DB80919501909196016A
S1130F608330910551F50630110539F567E081E0CC
S1130F7071D9809196018F93809195018F9386E525
S1130F8091E09F938F938E010F5F1F4F1F930F93D9
S1130F900E948113C80166D910929601109295019E
S1130FA085E090E09093D8018093D7010F900F9043
S1130FB00F900F900F900F9010C18230910539F46B
S1130FC00630110521F488EC90E021DD06C101977B
S1130FD009F03DC00630110509F039C06CE081E02C
S1130FE039D98AE591E03ED967E081E033D980912F
S1130FF096018F93809195018F9386E591E09F935D
S11310008F938E010F5F1F4F1F930F930E948113C5
S1131010C80128D91BBC1ABC19BC18BC2FEF3BE76C
S113102082E9215030408040E1F700C000006CE0CC
S113103081E010D989E391E015D988E097E0E7DCF5
S11310400F900F900F900F900F900F90C6C0101636
S1131050110684F48091970190919801009751F0C2
S11310601CF081E090E002C08FEF9FEF9093850128
S113107080938401012B99F586B597B5A0E0B0E083
S1131080AC01BD01440F551F661F771F440F551F48
S1131090661F771F840F951FA61FB71FAC01BD01E4
S11310A0440F551F661F771F440F551F661F771F78
S11310B08C019D01040F151F261F371FC901B8019C
S11310C024E630E040E050E00E940113A091840146
S11310D0B09185010E943B136B017C0138C086B539
S11310E097B5A0E0B0E0AC01BD01440F551F661FE9
S11310F0771F440F551F661F771F840F951FA61F68
S1131100B71FAC01BD01440F551F661F771F440F65
S1131110551F661F771F8C019D01040F151F261F85
S1131120371FC901B80124E630E040E050E00E94D6
S11311300113A0919701B09198010E943B1320E202
S113114033E040E050E00E94011369017A0186B562
S113115097B544E1489F9001499F300D112436957D
S1131160279536952795ABE7B4E10E942613BC0179
S1131170769567952091270130912801A9014C0D9E
S11311805D1D2C193D094617570734F4CB01841B08
S1131190950BAC0192E001C091E0E6B5F7B5E41718
S11311A0F50710F446B557B52617370734F4986099
S11311B0FB01E21BF30B9F0101C0946066B577B598
S11311C06217730710F426B537B588B3807F892B6F
S11311D088BB5BBD4ABD39BD28BD0F900F900F90F1
S11311E0DF91CF911F910F91FF90EF90DF90CF90FF
S11311F00895AC0188B3807F856088BB86B597B5B8
S1131200EEE1E89F9001E99F300D11243695279572
S113121036952795ABE7B4E10E94261396958795FA
S11312209BBD8ABD86B597B5E89F9001E99F300DB7
S1131230112436952795369527950E942613969561
S1131240879599BD88BD80E090E007C0EFE3FCE995
S11312503197F1F700C000000A9684179507B0F3A0
S11312601BBC1ABC19BC18BC0895AC0188B3807FA0
S11312708A6088BB86B597B5EEE1E89F9001E99F47
S1131280300D11243695279536952795ABE7B4E1B3
S11312900E942613969587959BBD8ABD86B597B502
S11312A0E89F9001E99F300D1124369527953695D6
S11312B027950E9426139695879599BD88BD80E051
S11312C090E007C0EFE3FCE93197F1F700C00000BC
S11312D00A9684179507B0F31BBC1ABC19BC18BC3A
S11312E00895CF92DF92EF92FF920F931F93CF93C3
S11312F0DF9300D902E010E050C0C801F1D8E80142
S11313002297AE01440F551FFA01E756FE4F918311
S11313108083FA01E354FE4F0190F081E02DDA015D
S1131320A35FBE4FED90FC90EE15FF0519F0EE198A
S1131330FF0902C0E1E0F0E0DE011696AA0FBB1F30
S1131340A756BE4F2D913C91820F931FDE011C9630
S1131350AA0FBB1FA756BE4F2D913C91820F931F1E
S113136063E070E00E94EE12DB01AE19BF0924E6CF
S113137030E00E9435139F01FF0F440B550B0E9470
S11313800113CC0FDD1FC752DE4F84E690E0821BB1
S1131390930B998388830F5F1F4F083011050CF45A
S11313A0ACCF82E090E028C0FC013297EE0FFF1F23
S11313B0E752FE4F20813181223331057CF44BB357
S11313C0BC016150710921E030E002C0220F331FDB
S11313D06A95E2F7209524232BBB0DC04BB3BC01C7
S11313E06150710921E030E002C0220F331F6A9579
S11313F0E2F7242B2BBB019688309105ACF21092B6
S113140098011092970120E030E0C0E0D0E024C0C1
S1131410C901880F991FFC01E752FE4F4081518199
S1131420FC01EF5FFE4F60817181469FC001479FC1
S1131430900D569F900D1124609197017091980121
S1131440860F971F9093980180939701423351051B
S11314500CF421962F5F3F4F26303105CCF223D96F
S11314608091950190919601019751F4C630D10570
S113147039F488E090E09093D8018093D70122C199
S11314802091A3013091A4014091C7015091C8015A
S11314908091170190911801840F951F99230CF4E2
S11314A001969595879528173907B4F420919901E9
S11314B030919A014091BD015091BE0180910D017E
S11314C090910E01840F951F99230CF40196959524
S11314D08795281739079CF184E690E08ADE2091ED
S11314E0C7013091C8018091170190911801820FB2
S11314F0931F99230CF40196959587959093A401D5
S11315008093A3012091BD013091BE0180910D0112
S113151090910E01820F931F99230CF401969595D7
S1131520879590939A018093990180918901909174
S11315308A01019690938A0180938901C3C01C1685
S11315401D0684F48091970190919801009751F0C1
S11315501CF081E090E002C08FEF9FEF9093830135
S113156080938201CD2B99F586B597B5A0E0B0E0C4
S1131570AC01BD01440F551F661F771F840F951FD3
S1131580A61FB71FAC01BD01440F551F661F771F6F
S1131590440F551F661F771F8C019D01040F151FF3
S11315A0261F371FC901B801660F771F881F991FAF
S11315B024E630E040E050E00E940113A091820153
S11315C0B09183010E943B136B017C0136C086B548
S11315D097B5A0E0B0E0AC01BD01440F551F661FF4
S11315E0771F840F951FA61FB71FAC01BD01440FC1
S11315F0551F661F771F440F551F661F771F8C01E9
S11316009D01040F151F261F371FC901B801660F5E
S1131610771F881F991F24E630E040E050E0F1D79F
S1131620A0919701B09198010E943B1320E233E00E
S113163040E050E0E6D769017A0186B597B544E108
S1131640489F9001499F300D112436952795369572
S11316502795ABE7B4E1FAD7BC017695679520915D
S1131660270130912801A9014C0D5D1D2C193D095C
S11316704617570734F4CB01841B950BAC0192E059
S113168001C091E0E6B5F7B5E417F50710F446B5E7
S113169057B52617370734F49860FB01E21BF30BA8
S11316A09F0101C0946066B577B56217730710F4A3
S11316B026B537B588B3807F892B88BB5BBD4ABD0F
S11316C039BD28BDDF91CF911F910F91FF90EF900D
S11316D0DF90CF900895CF92DF92EF92FF920F9315
S11316E01F93CF93DF930E947A0202E010E04EC072
S11316F0C8010E947002E8012297AE01440F551FF1
S1131700FA01E756FE4F91838083FA01E354FE4FBA
S11317100190F081E02DDA01A35FBE4FED90FC90C3
S1131720EE15FF0519F0EE19FF0902C0E1E0F0E043
S1131730DE011696AA0FBB1FA756BE4F2D913C91F2
S1131740820F931FDE011C96AA0FBB1FA756BE4F24
S11317502D913C91820F931F63E070E03FD7DB0132
S1131760AE19BF0924E630E080D79F01FF0F440B78
S1131770550B47D7CC0FDD1FC752DE4F84E690E0F0
S1131780821B930B998388830F5F1F4F08301105C9
S11317900CF4AECF82E090E028C0FC013297EE0F4B
S11317A0FF1FE752FE4F20813181223331057CF443
S11317B04BB3BC016150710921E030E002C0220F3B
S11317C0331F6A95E2F7209524232BBB0DC04BB33E
S11317D0BC016150710921E030E002C0220F331FC7
S11317E06A95E2F7242B2BBB019688309105ACF265
S11317F0109298011092970120E030E0C0E0D0E010
S113180024C0C901880F991FFC01E752FE4F408193
S11318105181FC01EF5FFE4F60817181469FC001E1
S1131820479F900D569F900D1124609197017091E0
S11318309801860F971F90939801809397014233E4
S113184051050CF421962F5F3F4F26303105CCF221
S11318500E945303809195019091960183309105E4
S113186029F5C630D10511F51BBC1ABC19BC18BC2E
S11318702FEF83ED90E3215080409040E1F700C0CA
S1131880000081E090E00E9470028E3591403CF0AF
S113189086E090E09093D8018093D701DDC087E083
S11318A090E09093D8018093D701D6C00297A1F419
S11318B0C630D10589F41BBC1ABC19BC18BCFFEF97
S11318C027EA81E6F15020408040E1F700C00000A3
S11318D084E690E0CADCC0C01C161D0684F4809126
S11318E0970190919801009751F01CF081E090E0ED
S11318F002C08FEF9FEF9093810180938001CD2BE5
S113190089F586B597B5A0E0B0E0AC01BD01440F00
S1131910551F661F771F840F951FA61FB71FAC01A5
S1131920BD01440F551F661F771F440F551F661FC7
S1131930771F8C019D01040F151F261F371FC90136
S1131940B801660F771F881F991F24E630E040E036
S113195050E057D6A0918001B09181018CD66B01E3
S11319607C0135C086B597B5A0E0B0E0AC01BD01FF
S1131970440F551F661F771F840F951FA61FB71F9F
S1131980AC01BD01440F551F661F771F440F551F3F
S1131990661F771F8C019D01040F151F261F371F1B
S11319A0C901B801660F771F881F991F24E630E02C
S11319B040E050E026D6A0919701B09198015BD603
S11319C020E233E040E050E01CD669017A0186B59C
S11319D097B544E1489F9001499F300D11243695F5
S11319E0279536952795ABE7B4E130D6BC017695BB
S11319F067952091270130912801A9014C0D5D1DA7
S1131A002C193D094617570734F4FB01E41BF50B69
S1131A10AF0192E001C091E0E6B5F7B5E417F50730
S1131A2010F446B557B52617370734F49860FB0110
S1131A30E21BF30B9F0101C0946066B577B5621792
S1131A40730710F426B537B588B3807F892B88BB1C
S1131A505BBD4ABD39BD28BDDF91CF911F910F9168
S1131A60FF90EF90DF90CF900895CF92DF92EF92A6
S1131A70FF920F931F93CF93DF930E947A0202E0A9
S1131A8010E04EC0C8010E947002E8012297AE0126
S1131A90440F551FFA01E756FE4F91838083FA01E4
S1131AA0E354FE4F0190F081E02DDA01A35FBE4FB5
S1131AB0ED90FC90EE15FF0519F0EE19FF0902C038
S1131AC0E1E0F0E0DE011696AA0FBB1FA756BE4F59
S1131AD02D913C91820F931FDE011C96AA0FBB1F10
S1131AE0A756BE4F2D913C91820F931F63E070E087
S1131AF075D5DB01AE19BF0924E630E0B6D59F01E8
S1131B00FF0F440B550B7DD5CC0FDD1FC752DE4FA5
S1131B1084E690E0821B930B998388830F5F1F4FA9
S1131B20083011050CF4AECF82E090E028C0FC012F
S1131B303297EE0FFF1FE752FE4F2081318122338F
S1131B4031057CF44BB3BC016150710921E030E0F4
S1131B5002C0220F331F6A95E2F7209524232BBB82
S1131B600DC04BB3BC016150710921E030E002C0EB
S1131B70220F331F6A95E2F7242B2BBB0196883082
S1131B809105ACF2109298011092970120E030E098
S1131B90C0E0D0E024C0C901880F991FFC01E752BE
S1131BA0FE4F40815181FC01EF5FFE4F60817181E6
S1131BB0469FC001479F900D569F900D1124609140
S1131BC0970170919801860F971F909398018093C5
S1131BD09701423351050CF421962F5F3F4F263075
S1131BE03105CCF20E9453038091950190919601A6
S1131BF00297C1F4C630D105A9F48CED95E0F9DA69
S1131C0024E531E882EF97E0215030408040904055
S1131C10D9F700C000C0000081E090E09093D601A5
S1131C208093D5011C161D0684F480919701909130
S1131C309801009751F01CF081E090E002C08FEF12
S1131C409FEF90937F0180937E01CD2B89F586B51C
S1131C5097B5A0E0B0E0AC01BD01440F551F661F6D
S1131C60771F840F951FA61FB71FAC01BD01440F3A
S1131C70551F661F771F440F551F661F771F8C0162
S1131C809D01040F151F261F371FC901B801660FD8
S1131C90771F881F991F24E630E040E050E0B1D45C
S1131CA0A0917E01B0917F01E6D46B017C0135C027
S1131CB086B597B5A0E0B0E0AC01BD01440F551F57
S1131CC0661F771F840F951FA61FB71FAC01BD01A8
S1131CD0440F551F661F771F440F551F661F771F3C
S1131CE08C019D01040F151F261F371FC901B80160
S1131CF0660F771F881F991F24E630E040E050E00C
S1131D0080D4A0919701B0919801B5D420E233E03A
S1131D1040E050E076D469017A0186B597B544E194
S1131D20489F9001499F300D11243695279536958B
S1131D302795ABE7B4E18AD4BC01769567952091E9
S1131D40270130912801A9014C0D5D1D2C193D0975
S1131D504617570734F4FB01E41BF50BAF0192E07F
S1131D6001C091E0E6B5F7B5E417F50710F446B500
S1131D7057B52617370734F49860FB01E21BF30BC1
S1131D809F0101C0946066B577B56217730710F4BC
S1131D9026B537B588B3807F892B88BB5BBD4ABD28
S1131DA039BD28BDDF91CF911F910F91FF90EF9026
S1131DB0DF90CF900895CF93DF930E947A02C2E020
S1131DC0D0E02FC0CE010E9470029E012250310942
S1131DD0A901440F551FFA01E756FE4F91838083F2
S1131DE0FA01E354FE4F40815181841795073CF07A
S1131DF0F901EE0FFF1FE354FE4F91838083F90135
S1131E00EE0FFF1FE35FFE4F4081518148175907D2
S1131E103CF0220F331FF901E35FFE4F918380836F
S1131E202196C830D10574F222E030E03BC0C901EC
S1131E300297880F991FFC01E756FE4F408151819C
S1131E40FC01E354FE4F60817181FC01E35FFE4FAE
S1131E5080819181860F971F99230CF401969595A3
S1131E608795481759077CF44BB3B9016150710940
S1131E7081E090E002C0880F991F6A95E2F780958F
S1131E8084238BBB0DC04BB3B9016150710981E050
S1131E9090E002C0880F991F6A95E2F7842B8BBBF0
S1131EA02F5F3F4F2830310514F2DF91CF91089511
S1131EB0EF92FF920F931F93CF93DF93CDB7DEB7CB
S1131EC060970FB6F894DEBF0FBECDBF81E090E0FF
S1131ED00E9470028C0160E080E00E942A018FE57C
S1131EE091E00E94320163E080E00E942A011F9386
S1131EF00F9385E691E09F938F93CE0101967C0129
S1131F009F938F93FED3C7010E9432010F900F90CD
S1131F100F900F900F900F900039114024F084E639
S1131F2090E067D911C088E592E00E94070588EE29
S1131F3093E05FD989E090E09093D8018093D70132
S1131F40109296011092950160960FB6F894DEBF38
S1131F500FBECDBFDF91CF911F910F91FF90EF90F6
S1131F600895EF92FF920F931F93CF93DF93CDB712
S1131F70DEB760970FB6F894DEBF0FBECDBF81E029
S1131F8090E00E9470028C0160E080E00E942A01CF
S1131F908FE591E00E94320163E080E00E942A0113
S1131FA01F930F9385E691E09F938F93CE01019643
S1131FB07C019F938F93A5D3C7010E9432010F9098
S1131FC00F900F900F900F900F90043F91E019071E
S1131FD034F081E090E090938C0180938B0101397F
S1131FE01140C4F480918B0190918C01892B91F064
S1131FF088E592E00E94070588EE93E0FAD88CE029
S113200090E09093D8018093D7011092960110929A
S1132010950103C084E690E0ECD860960FB6F8947E
S1132020DEBF0FBECDBFDF91CF911F910F91FF9007
S1132030EF900895AC0188B3807F866088BB86B535
S113204097B5EEE1E89F9001E99F300D1124369594
S1132050279536952795ABE7B4E1F8D29695879501
S11320609BBD8ABD86B597B5E89F9001E99F300D69
S113207011243695279536952795E8D29695879518
S113208099BD88BD80E090E007C0EFE3FCE931979B
S1132090F1F700C000000A9684179507B0F31BBC43
S11320A01ABC19BC18BC0895CF92DF92EF92FF922C
S11320B00F931F93CF93DF930E947A0202E010E004
S11320C04EC0C8010E947002E8012297AE01440F7D
S11320D0551FFA01E756FE4F91838083FA01E354BA
S11320E0FE4F0190F081E02DDA01A35FBE4FED9029
S11320F0FC90EE15FF0519F0EE19FF0902C0E1E0AE
S1132100F0E0DE011696AA0FBB1FA756BE4F2D9115
S11321103C91820F931FDE011C96AA0FBB1FA7568A
S1132120BE4F2D913C91820F931F63E070E056D215
S1132130DB01AE19BF0924E630E097D29F01FF0FFF
S1132140440B550B5ED2CC0FDD1FC752DE4F84E625
S113215090E0821B930B998388830F5F1F4F083095
S113216011050CF4AECF82E090E028C0FC01329758
S1132170EE0FFF1FE752FE4F2081318122333105DC
S11321807CF44BB3BC016150710921E030E002C022
S1132190220F331F6A95E2F7209524232BBB0DC031
S11321A04BB3BC016150710921E030E002C0220F41
S11321B0331F6A95E2F7242B2BBB019688309105D7
S11321C0ACF2109298011092970120E030E0C0E048
S11321D0D0E024C0C901880F991FFC01E752FE4FCB
S11321E040815181FC01EF5FFE4F60817181469F08
S11321F0C001479F900D569F900D11246091970147
S113220070919801860F971F90939801809397017E
S1132210423351050CF421962F5F3F4F2630310590
S1132220CCF20E94530380919501909196018130E4
S1132230910539F4C630D10521F48CE291E0FADE3F
S1132240DBC00397C9F4C630D105B1F48CED95E039
S11322500E94F90881E090E09093D6018093D50123
S113226024E531E882EF97E02150304080409040EF
S1132270D9F700C000C000001C161D0684F480912C
S1132280970190919801009751F01CF081E090E043
S113229002C08FEF9FEF90937D0180937C01CD2B43
S11322A089F586B597B5A0E0B0E0AC01BD01440F57
S11322B0551F661F771F840F951FA61FB71FAC01FC
S11322C0BD01440F551F661F771F440F551F661F1E
S11322D0771F8C019D01040F151F261F371FC9018D
S11322E0B801660F771F881F991F24E630E040E08D
S11322F050E087D1A0917C01B0917D01BCD16B01EC
S11323007C0135C086B597B5A0E0B0E0AC01BD0155
S1132310440F551F661F771F840F951FA61FB71FF5
S1132320AC01BD01440F551F661F771F440F551F95
S1132330661F771F8C019D01040F151F261F371F71
S1132340C901B801660F771F881F991F24E630E082
S113235040E050E056D1A0919701B09198018BD103
S113236020E233E040E050E04CD169017A0186B5C7
S113237097B544E1489F9001499F300D112436954B
S1132380279536952795ABE7B4E160D1BC017695E6
S113239067952091270130912801A9014C0D5D1DFD
S11323A02C193D094617570734F4FB01E41BF50BC0
S11323B0AF0192E001C091E0E6B5F7B5E417F50787
S11323C010F446B557B52617370734F49860FB0167
S11323D0E21BF30B9F0101C0946066B577B56217E9
S11323E0730710F426B537B588B3807F892B88BB73
S11323F05BBD4ABD39BD28BDDF91CF911F910F91BF
S1132400FF90EF90DF90CF900895EF92FF920F939B
S11324101F93CF93DF93CDB7DEB760970FB6F894D1
S1132420DEBF0FBECDBF0E94690278948091D501B2
S11324309091D601019709F4C2C080918F01811156
S11324401FC080912501909126010296209195014B
S113245030919601281739079CF081E080938F0111
S113246083E090E09093D8018093D7010E94D50433
S113247068E081E00E942A0189E691E00E9432012D
S1132480E091D701F091D8013197EC30F10570F665
S1132490EA5BFF4FD2C00E94AA02C8CF0E94430544
S11324A0809188018F5F80938801823308F4BECFC6
S11324B0109288010E94D504B9CF0E949703B6CF29
S11324C081E090E00E9470028C01809188018F5F0E
S11324D080938801823318F11092880160E080E0D3
S11324E00E942A018FE591E00E94320163E080E0BE
S11324F00E942A011F930F9385E691E09F938F9387
S1132500CE0101967C019F938F93FBD0C7010E945B
S113251032010F900F900F900F900F900F900A3888
S113252092E0190734F081E090E090938E0180935B
S11325308D01053F81E0180714F580918D0190917C
S11325408E01892BE1F06CE080E00E942A018FE685
S113255091E00E9432010739110564F46CE080E0D7
S11325600E942A0184E791E00E94320110928E01B8
S113257010928D011BBC1ABC19BC18BC57CF0E9409
S1132580E60654CF809188018F5F8093880182335F
S113259020F00E94D504109288010E94710946CF50
S11325A087DC44CFDEDC42CF96D840CF5EDA3ECF24
S11325B002DC3CCF8FEF8BBB39CF76DD37CF80E0A9
S11325C090E060960FB6F894DEBF0FBECDBFDF91EA
S11325D0CF911F910F91FF90EF90089597FB072ED5
S11325E016F4009406D077FD08D04BD007FC05D034
S11325F03EF4909581959F4F0895709561957F4F16
S11326000895052E97FB16F400940FD057FD05D0BE
S11326104CD007FC02D046F408C050954095309544
S113262021953F4F4F4F5F4F08959095809570953A
S113263061957F4F8F4F9F4F0895EE0FFF1F00242A
S1132640001C0BBE0790F691E02D0994A29FB001E7
S1132650B39FC001A39F700D811D1124911DB29FD2
S1132660700D811D1124911D0895F0DFB7FF0895A9
S1132670821B930B0895B7FF3AC039D0821B930B8A
S11326800895AA1BBB1B51E107C0AA1FBB1FA617B5
S1132690B70710F0A61BB70B881F991F5A95A9F707
S11326A080959095BC01CD010895A1E21A2EAA1B34
S11326B0BB1BFD010DC0AA1FBB1FEE1FFF1FA217EE
S11326C0B307E407F50720F0A21BB30BE40BF50BEB
S11326D0661F771F881F991F1A9469F76095709574
S11326E0809590959B01AC01BD01CF010895AEDFAB
S11326F0A59F900DB49F900DA49F800D911D112452
S113270008950F931F93CF93DF93CDB7DEB72E9722
S11327100FB6F894DEBF0FBECDBF0D891E8986E0CB
S11327208C831A8309838FEF9FE79E838D83AE0189
S1132730475E5F4F6F89788DCE01019610D0EF818F
S1132740F885E00FF11F10822E960FB6F894DEBFC5
S11327500FBECDBFDF91CF911F910F9108952F929E
S11327603F924F925F926F927F928F929F92AF921D
S1132770BF92CF92DF92EF92FF920F931F93CF936A
S1132780DF93CDB7DEB72B970FB6F894DEBF0FBE3D
S1132790CDBF6C017B018A01FC0117821682838103
S11327A081FFBFC1CE0101963C01F6019381F7017F
S11327B093FD859193FF81917F01882309F4ADC135
S11327C0853239F493FD859193FF81917F018532A0
S11327D021F4B60190E0D6D1E8CF912C212C312CF4
S11327E0FFE1F315D8F08B3279F038F4803279F0C8
S11327F08332A1F4232D20611DC08D3261F080331A
S113280069F4232D216016C0832D8260382EE32DB8
S1132810E4603E2E2AC0F32DF8601DC037FC2DC0A5
S113282020ED280F2A3040F08E32B9F436FC75C101
S1132830232D2064322E19C036FE06C08AE0989EED
S1132840200D1124922E11C0EAE02E9E200D112499
S1132850222EF32DF0623F2E08C08C3621F4832DF6
S11328608068382E02C0883641F4F70193FD8591C3
S113287093FF81917F018111B3CF982F9F7D955450
S1132880933028F40C5F1F4F9FE399830DC0833668
S113289031F0833771F0833509F055C020C0F80159
S11328A0808189830E5F1F4F88248394912C530168
S11328B012C02801F2E04F0E511CF801A080B18033
S11328C036FE03C0692D70E002C06FEF7FEFC501D3
S11328D04ED14C018201F32DFF773F2E15C0280104
S11328E022E0420E511CF801A080B18036FE03C0E4
S11328F0692D70E002C06FEF7FEFC5012DD14C014F
S1132900F32DF0683F2E820133FC19C0822D90E034
S113291088169906A0F4B60180E290E033D12A9497
S1132920F5CFF50137FC859137FE81915F01B60142
S113293090E028D121102A9421E0821A9108811470
S1132940910479F7E1C0843611F0893639F5F8013C
S113295037FE07C060817181828193810C5F1F4FB4
S113296008C060817181072E000C880B990B0E5FE3
S11329701F4FF32DFF763F2E97FF09C0909580954A
S1132980709561957F4F8F4F9F4FF0683F2E2AE0DF
S113299030E0A30133D1882E861844C0853731F442
S11329A0232D2F7EB22E2AE030E025C0932D997F6F
S11329B0B92E8F36C1F018F4883579F0AEC080375F
S11329C019F0883721F0A9C0E92FE061BE2EB4FECA
S11329D00DC0FB2DF460BF2E09C034FE0AC0292FA0
S11329E02660B22E06C028E030E005C020E130E0C9
S11329F002C020E132E0F801B7FE07C060817181B6
S1132A00828193810C5F1F4F06C06081718180E0D9
S1132A1090E00E5F1F4FA301F1D0882E8618FB2D86
S1132A20FF773F2E36FE0DC0232D2E7FA22E891454
S1132A3058F434FE0BC032FC09C0832D8E7EA82EC0
S1132A4005C0B82CA32C03C0B82C01C0B92CA4FE1B
S1132A500FC0FE01E80DF11D8081803321F49A2D11
S1132A60997EA92E09C0A2FE06C0B394B39404C0F3
S1132A708A2D867809F0B394A3FC10C0A0FE06C08A
S1132A80B21480F4280C922C9B180DC0B21458F484
S1132A90B60180E290E076D0B394F8CFB21418F483
S1132AA02B1802C0982C212CA4FE0FC0B60180E381
S1132AB090E068D0A2FE16C0A1FC03C088E790E0B5
S1132AC002C088E590E0B6010CC08A2D867851F0EA
S1132AD0A1FE02C08BE201C080E2A7FC8DE2B60138
S1132AE090E050D0891430F4B60180E390E04AD0ED
S1132AF09A94F8CF8A94F301E80DF11D8081B60110
S1132B0090E040D08110F6CF222009F44ECEB601D9
S1132B1080E290E037D02A94F7CFF601868197813E
S1132B2002C08FEF9FEF2B960FB6F894DEBF0FBE57
S1132B30CDBFDF91CF911F910F91FF90EF90DF9068
S1132B40CF90BF90AF909F908F907F906F905F9049
S1132B504F903F902F900895FC0105906150704074
S1132B600110D8F7809590958E0F9F1F0895FC0152
S1132B706150704001900110D8F7809590958E0FA8
S1132B809F1F08950F931F93CF93DF93FB0123811E
S1132B9021FD03C08FEF9FEF2CC022FF16C046819A
S1132BA05781248135814217530744F4A081B181B0
S1132BB09D012F5F3F4F318320838C932681378182
S1132BC02F5F3F4F3783268314C08B01EC01FB0139
S1132BD00084F185E02D0995892BE1F6D80116963C
S1132BE08D919C911797019617969C938E931697A7
S1132BF0CE01DF91CF911F910F910895FA01AA2779
S1132C00283051F1203181F1E8946F936E7F6E5F2B
S1132C107F4F8F4F9F4FAF4FB1E03ED0B4E03CD0D9
S1132C20670F781F891F9A1FA11D680F791F8A1FBC
S1132C30911DA11D6A0F711D811D911DA11D20D023
S1132C4009F468943F912AE0269F11243019305DDD
S1132C503193DEF6CF010895462F4770405D4193CE
S1132C60B3E00FD0C9F7F6CF462F4F70405D4A331B
S1132C7018F0495D31FD4052419302D0A9F7EACFE3
S1132C80B4E0A6959795879577956795BA95C9F712
S1132C9000976105710508959B01AC010A2E069405
S1132CA05795479537952795BA95C9F7620F731FBE
S10F2CB0841F951FA01D0895F894FFCF09
S1132CBC4EF8FFFCFFFEFF020004000800FF03FFB8
S1132CCC03FF03FF03FF03FF03FF03FF03FF03FFE4
S1132CDC03FF03FF0303003E00253464002020207F
S1132CEC2020202020202020202020202000776558
S1132CFC696768745F73756D002538640076657256
S1132D0C7469636C6500253264005041524B006158
S1132D1C64633A2000253564006D6F646533007379
S10F2D2C746F7000676F212020200000ED
S9030000FC
